:020000040800F2
:10800000D006002035820008EB8F00083F8F000863
:10801000E98F00088F840008159200080000000016
:10802000000000000000000000000000EF8F0008CA
:108030009184000800000000ED8F0008F18F000817
:108040004F8200084F8200084F8200084F820008CC
:108050004F8200084F820008958400084F82000874
:108060004F8200084F8200084F8200084F820008AC
:108070004F8200084F8200084F8200084F8200089C
:108080004F8200084F8200084F8200080000000065
:108090000000000000000000000000004F82000807
:1080A0004F8200084F8200084F8200084F8200086C
:1080B0004F8200084F8200084F8200084F8200085C
:1080C0004F8200084F8200084F8200084F8200084C
:1080D0004F8200084F8200084F8200080000000015
:1080E0004F8200084F8200084F8200080000000005
:1080F0000000000000000000000000004F820008A7
:10810000000000004F8200084F8200084F820008E4
:10811000000000000000000000000000000000005F
:108120004F8200084F8200084F8200084F820008EB
:108130004F82000800000000000000000000000066
:108140000000000000000000000000004F82000856
:108150004F8200084F8200084F8200084F820008BB
:108160004F8200084F82000800000000000000005D
:1081700000000000000000000000000000000000FF
:10818000000000004F820008000000000000000016
:108190004F82000800F002F800F03CF80AA090E8D6
:1081A000000C82448344AAF10107DA4501D100F0B2
:1081B00031F8AFF2090EBAE80F0013F0010F18BF43
:1081C000FB1A43F001031847C8100000E810000034
:1081D000103A24BF78C878C1FAD8520724BF30C8F3
:1081E00030C144BF04680C607047000000230024C5
:1081F00000250026103A28BF78C1FBD8520728BFB7
:1082000030C148BF0B6070471FB501F02FF81FBD8C
:1082100010B510BD00F001F91146FFF7F5FF01F0B0
:108220000BF800F01FF903B4FFF7F2FF03BC00F0F6
:1082300027F900000948804709480047FEE7FEE7A4
:10824000FEE7FEE7FEE7FEE7FEE7FEE7FEE7FEE706
:1082500004480549054A064B704700007590000820
:1082600095810008D0000020D0060020D002002018
:10827000D002002053EA020C00F069802DE9F04B97
:108280004FF00006002B1FBFB3FA83F503FA05F485
:1082900024FA05F65E4012BF1643B2FA82F502FADE
:1082A00005F4C5F120051EBF22FA05FC44EA0C04C2
:1082B000203556EA044C4FEA144418BF641C4FF0B2
:1082C00000084FF00009904271EB030C39D30029EC
:1082D00019BFB1FA81F701FA07F6B0FA80F700FA90
:1082E00007F6C7F120071EBF20FA07FC46EA0C0676
:1082F0002037B6FBF4FCA7EB0507103F07F01F0B78
:10830000CBF120060CFA0BFB2CFA06F644BFB34661
:108310000026202FA4BF5E464FF0000B5BEA060C40
:1083200008BF4FF0010B19EB0B09ABFB027C48EBCC
:108330000608C01B06FB02CC0BFB03CC71EB0C0147
:10834000C1E70B46024641464846BDE8F08B13B5EF
:108350004FF000004FF00001AFF30080BDE81C407B
:10836000704710B5203AC0F00B80B1E81850203AA1
:10837000A0E81850B1E81850A0E81850BFF4F5AFC5
:108380005FEA027C24BFB1E81850A0E8185044BF4F
:1083900018C918C0BDE810405FEA827C24BF51F8BC
:1083A000043B40F8043B08BF7047D20728BF31F8B0
:1083B000023B48BF11F8012B28BF20F8023B48BF01
:1083C00000F8012B70474FF0000200B513469446A9
:1083D0009646203922BFA0E80C50A0E80C50B1F11D
:1083E0002001BFF4F7AF090728BFA0E80C5048BF31
:1083F0000CC05DF804EB890028BF40F8042B08BFCF
:10840000704748BF20F8022B11F0804F18BF00F8CA
:10841000012B7047704770477047754600F02CF885
:10842000AE4605006946534620F00700854618B061
:1084300020B5FFF70DFFBDE820404FF000064FF0DC
:1084400000074FF000084FF0000B21F00701AC4689
:10845000ACE8C009ACE8C009ACE8C009ACE8C009A8
:108460008D46704710B50446AFF300802046BDE846
:108470001040FFF7D8BE0000004870477000002091
:1084800001491820ABBEFEE7260002007047FEE758
:108490007047000000B589B0242208A16846FFF7A4
:1084A00060FF4FF0FF33212269460D4800F0EEFCDB
:1084B000012000F02DF809B000BD0000457874657A
:1084C000726E616C20496E74657272757074206989
:1084D000732072756E6E696E67200D0A00000000D1
:1084E0002C00002072B6FEE770B5044600F012F9C9
:1084F0000546601C02D004480078044400F00AF9E4
:10850000401BA042FAD370BD1C0000207047000041
:10851000044910B50A68024202D00860FFF7F6FF6E
:1085200010BD0000143C01402DE9F84FDFF8B8A160
:108530000022012403254FF00F090AF1040BAAF1D0
:10854000040E00BF0B6804FA02F63340B34273D145
:108550000F7907F00307012F01D0022F16D187688A
:108560004FEA420805FA08FC27EA0C07D1F80CC0CC
:108570000CFA08FC4CEA070CC0F808C04768B7437F
:108580000E79C6F3001696403E4346600E79F643D8
:10859000B6070DD0C768560005FA06FC27EA0C0797
:1085A000D1F808C00CFA06FC4CEA070CC0F80CC065
:1085B0000E7906F00306022E10D1D60800EB8608CD
:1085C000D8F8206057074FEAD76C09FA0CF7BE437A
:1085D0000F6907FA0CF73743C8F8207006684FEAAE
:1085E000420C05FA0CF7BE430F7907F0030707FAB0
:1085F0000CF7374307604E6816F4403F6DD03B4E92
:10860000376847F480473760366822F0030706F47E
:1086100080460096364E07EB060CDCF80868970794
:108620003F0F09FA07F826EA0806DFF8C880404538
:1086300003D14FF000081EE04FE0DFF8BC8040455A
:1086400002D14FF0010816E0DFF8B080404502D1BA
:108650004FF002080FE0DFF8A880404502D14FF04C
:10866000030808E0DFF89C80404502D14FF0040881
:1086700001E04FF0070808FA07F848EA0608CCF8C6
:108680000888DAF800605746D1F804C09E435FEAD4
:10869000CC2C00D51E433E60DBF800605F46D1F86D
:1086A00004C09E435FEA8C2C00D51E433E60DEF87A
:1086B00000607746D1F804C09E435FEA8C3C00D549
:1086C0001E433E60084F083F3E68D1F804C09E43F9
:1086D0005FEACC3C00D51E433E60521C102AFFF4DA
:1086E00031AFBDE8F88F0000083C0140443802403B
:1086F0000030014000000240000402400008024037
:10870000000C0240001002400AB181617047090468
:10871000FBE7000001488068704700001C00002053
:108720000248816802781144816070471C00002073
:108730000B4810B5016841F400710160016841F413
:1087400080610160016841F480710160032000F0E4
:108750006FF80F2000F006F800F024F8002010BD9C
:10876000003C024070B50D4D04464FF47A712878F4
:10877000B1FBF0F00A490968B1FBF0F000F00CFB26
:1087800048B9102C07D200222146501E00F030F8C4
:1087900000206C6070BD012070BD00001C00002036
:1087A000280000200A4808B5016841F480410160B2
:1087B000006800F4804000900548001F016841F007
:1087C00080510160006800F08050009008BD0000FA
:1087D00044380240002809DB00F01F0201219140CB
:1087E0004009800000F1E020C0F80011704700004F
:1087F000F0B40E4B1B680C46C3F30223C3F107050C
:10880000042D00D90425191D072901D2002300E0F9
:10881000DB1E012606FA05F1491E214099409E40C3
:10882000761E16403143F0BC00F0F5BC0CED00E0C4
:10883000064900F0070208684FF6FF03184040EAB7
:108840000220034A10430860704700000CED00E06E
:108850000000FA052DE9F0470E46050065D0DFF867
:108860001481D8F80000F7B200F00700B04207D238
:1088700088F80070D8F8000000F00700B04254D12A
:1088800028683D4C810712D5400703D5206840F485
:10889000E05020602878000703D5206840F460404D
:1088A00020602068A96820F0F00008432060287844
:1088B000C0072DD0304968680839012812D0022835
:1088C00013D0032811D00968890700292DDA2168FF
:1088D00021F0030101432160FFF71CFF814641F2B3
:1088E000883A0EE009688903EFE709688901ECE737
:1088F000FFF710FFA0EB0901514502D90320BDE8A5
:10890000F0872068696800F00C00B0EB810FEFD1B0
:10891000D8F80010404601F00701B14207D90770AE
:10892000006800F00700B04201D00120E7E7287896
:10893000400705D52068E96820F4E050084320602E
:108940002878000706D52068296920F4604040EAAD
:10895000C100206000F038F82168084AC1F3031113
:10896000515CC8400649086006480068FFF7FAFEF7
:108970000020C4E7003C024008380240769200081C
:1089800028000020200000200448054900680968EC
:10899000044AC1F38221515CC8407047280000207E
:1089A00008380240869200080448054900680968B2
:1089B000044AC1F34231515CC8407047280000208E
:1089C0000838024086920008154810B5006810F07B
:1089D0000C02144813D01449042A0FD0082A0ED1CF
:1089E0000F4C241F2268236802F03F025B0207D568
:1089F0002068C0F38810A0FB010106E0084610BD06
:108A00002168C1F38811A1FB00010023FFF732FCAC
:108A10002168C1F30141491C4900B0FBF1F010BDD0
:108A2000083802400024F40040787D012DE9F84F19
:108A300004006ED02078DFF84C93C007A9F104053C
:108A40004AD009F104000168C1F38101012908D06D
:108A50000068C0F3810002280AD1D9F80000400262
:108A600006D52868800337D560680028E1D033E058
:108A70006068B0F5803F10D0B0F5A02F286810D006
:108A800020F480302860286820F480202860606806
:108A9000A8B1FFF73FFE06460DE0286840F480309D
:108AA000F4E740F480202860F7E700BFFFF732FECC
:108AB000801B642873D828688003F7D50CE0FFF783
:108AC00029FE064605E000BFFFF724FE801B642850
:108AD000F0D828688003F7D42078DFF8AC828007CC
:108AE0004FF0000A3ED5A748001D016811F00C0F99
:108AF00008D00068C0F3810002280BD1D9F800002B
:108B0000400207D42868800716D5E068012800D104
:108B100012E033E1E068B8B10120C8F80000FFF7C7
:108B2000F9FD064605E000BFFFF7F4FD801B0228B3
:108B3000C0D828688007F7D52868216920F0F80098
:108B400040EAC10028600DE0C8F800A0FFF7E2FD90
:108B5000064604E0FFF7DEFD801B02281FD82868C8
:108B60008007F7D42078000722D5864F87486169AF
:108B7000703771B101210160FFF7CCFD064604E0BA
:108B8000FFF7C8FD801B022809D838688007F7D591
:108B90000EE0C0F800A0FFF7BDFD064605E082E04C
:108BA000FFF7B8FD801B02287DD838688007F7D40E
:108BB0002078400768D5DFF8CCB100270BF13C0BDB
:108BC000DBF80000C0000BD4DBF8001041F080514E
:108BD000CBF80010DBF80000012700F08050009077
:108BE0006B4E3068C00510D4306840F4807030603F
:108BF000FFF790FD009005E0FFF78CFD0099401A0B
:108C0000022850D83068C005F6D55E4EA0686C3694
:108C100001280FD00528306810D020F00100306006
:108C2000306820F004003060A068B8B1FFF772FD32
:108C300000900FE0306840F00100F4E740F00400DD
:108C40003060F7E7FFF766FD0099411A41F288307E
:108C5000814266D830688007F4D50EE0FFF75AFDF0
:108C6000009007E0FFF756FD0099411A41F2883065
:108C7000814256D830688007F4D42FB1DBF8001059
:108C800021F08051CBF80010A069C8B33D49091DFF
:108C90000968C1F3810102294AD00228504607D051
:108CA000C8F8600000E03CE0FFF734FD04463BE01C
:108CB0004746C8F86000FFF72DFD064605E000BFF7
:108CC000FFF728FD801B02282BD828688001F7D4E5
:108CD000D4E907010843A16A2E4A490802EB014181
:108CE000626A41EA8211084394F82C1040EA01615B
:108CF000C9F8001001203866FFF70CFD044606E0B5
:108D00003EE000BFFFF706FD001B022809D82868D7
:108D10008001F7D534E000BFFFF7FCFC001B022800
:108D200002D90320BDE8F88F28688001F4D427E039
:108D30000128F7D0D9F80000E26900F480019142DF
:108D40001CD1226A00F03F01914217D147F6C07151
:108D5000626A0140B1EB821F10D1A26A4FF0FF336B
:108D600000F4403103EB5202B1EB024F06D194F80C
:108D70002C1000F07060B0EB016F01D00120D1E742
:108D80000020CFE70438024000004742800E4742EF
:108D9000007000400000FFFF10B5401EB0F1807F62
:108DA00001D3012010BD4FF0E02460610F21601756
:108DB00000F031FA0020A06107202061002010BDE2
:108DC00070B5040004D094F83D00002510B106E011
:108DD000012070BD84F83C50204600F023F8242088
:108DE00084F83D002068C16821F40051C16020462C
:108DF00000F04EF92068016921F49041016120687A
:108E0000416921F02A0141612068C16841F40051A3
:108E1000C1602564202084F83D0084F83E000020D5
:108E200070BD000010B586B0044614216846FFF7F7
:108E3000CAFA13492068884220D1124800210268EA
:108E400042F400320260006800F4003005900D48E2
:108E50001038026842F001020260006800F0010070
:108E600005900C2000900220CDE901010320039021
:108E70000720049069460448FFF756FB06B010BD72
:108E80000044004040380240000002402DE9F84311
:108E9000044690F83D001F4616460D4620284CD14A
:108EA000C5B1BEB194F83C00012846D0012084F839
:108EB0003C004FF00008C4F84080212084F83D00B9
:108EC000FFF728FCA6848146E684A068B0F5805FA1
:108ED00003D004E00120BDE8F883206928B12E46C4
:108EE0005FF0000584F83C800EE00026FAE7802160
:108EF000204600F053F9A0B9AEB116F8010B216875
:108F00004860E08C401EE084E08C4B464FF000024D
:108F100000970028EBD14FF04001204600F03EF9C9
:108F200030B10320D7E735F8020BC0F30800E6E7BD
:108F3000202084F83D000020CDE70220CBE7FEE7AB
:108F400070B586B014216846FFF73DFA1648002434
:108F5000016841F0010101600068144E00F0010059
:108F60000590224602213046FFF7CEFB01254FF443
:108F700088100095CDE9010469463046FFF7D4FA20
:108F800002200090CDE90154694630460394FFF772
:108F9000CBFA002211460620FFF72AFC0620FFF735
:108FA00019FC06B070BD00003038024000000240DD
:108FB0000C4810B50A4901604FF4E13141600021CD
:108FC00081600C22C160C0E904128161C161FFF7B8
:108FD000F7FE002803D0BDE81040FFF783BA10BDAC
:108FE000004400402C000020FEE7FEE77047704779
:108FF000FFF796BB10B592B030216846FFF7E3F952
:1090000014210CA8FFF7DFF918480024016841F08B
:1090100080510160006800F0805011901448016890
:1090200021F4404141F4004101600068069400F4DD
:1090300040401190022000900120039010200490E5
:109040006846FFF7F3FC08B172B6FEE70F20CDE9E2
:109050000C040E940F9400210CA81094FFF7FAFB57
:10906000002801D072B6FEE712B010BD40380240B1
:10907000007000400448016841F470010160024939
:10908000024880390860704788ED00E000800008E1
:1090900070B5044600680169E26821F4405111434B
:1090A00001612169A068E2690843616911430843CD
:1090B0002168CA6849F20C639A430243CA60206877
:1090C0004169A26921F4407111434161314920682D
:1090D000884202D03049884202D1FFF765FC01E0A6
:1090E000FFF752FCE2690023192164253226B2F50C
:1090F000004F626828D0A0FB0101930F9200FFF798
:10910000B9F80146B0FBF5F06FF01802504301EBDF
:10911000800006EB0010B0FBF5F000F0F002B1FBB0
:10912000F5F002EB0012B1FBF5F06FF018035843B5
:1091300001EB800006EB0010B0FBF5F000F00F0033
:1091400021681044886070BDA0FB010192185B414A
:10915000FFF790F80146B0FBF5F00201B1FBF5F026
:109160006FF01803584301EB800006EBC000B0FB22
:10917000F5F000F0F80002EB4002B1FBF5F05843C7
:1091800001EB800006EBC000B0FBF5F000F007003B
:10919000D6E7000000100140001401402DE9F04125
:1091A000984617460E460446069D27E0681C25D0C3
:1091B0002DB1FFF7AFFAA0EB0800A8421ED9206836
:1091C0000C3050E8001F21F4D07140E80012002A52
:1091D000F5D12068143050E8001F21F0010140E86B
:1091E0000012002AF5D1202084F83D0084F83E00CA
:1091F000002084F83C000320BDE8F081206800686E
:1092000036EA000004D00020B842CFD00020F3E7B7
:109210000120F9E7FEE70907090E002804DB00F149
:10922000E02080F80014704700F00F0000F1E0200B
:1092300080F8141D70470000FFF77AFAFFF7DAFE96
:10924000FFF77EFEFFF7B4FE4FF0FF344FF4FA75E0
:1092500023461A2203490448FFF718FE2846FFF761
:1092600043F9F5E7000000202C0000204FF040708B
:10927000E1EE100A7047000000000000000001024B
:1092800003040607080900000000010203040000AF
:10929000B0920008000000202C000000D0810008DF
:1092A000DC9200082C000020A4060000EC810008DD
:1092B0004170706C69636174696F6E2069732072AC
:1092C000756E6E696E67200D0A00000001000000D7
:0C92D00010000000000000000024F4006A
:0400000508008195D9
:00000001FF
