:020000040800F2
:10800000B8FE002035820008EF8E0008598C000869
:10801000ED8E000891840008A99A00080000000075
:10802000000000000000000000000000518F000868
:108030000586000800000000F18E0008918F0008FE
:108040004F8200084F8200084F8200084F820008CC
:108050004F8200084F8200084F8200084F820008BC
:108060004F8200084F8200084F8200084F820008AC
:108070004F8200084F8200084F8200084F8200089C
:108080004F8200084F8200084F8200080000000065
:108090000000000000000000000000004F82000807
:1080A0004F8200084F8200084F820008319000087C
:1080B00065900008A1900008E19000084F82000838
:1080C0004F8200084F8200084F8200084F8200084C
:1080D0004F8200084F8200084F8200080000000015
:1080E0004F8200084F8200084F8200080000000005
:1080F0000000000000000000000000004F820008A7
:10810000000000004F820008219100084F82000803
:10811000000000000000000000000000000000005F
:108120004F8200084F8200084F8200084F820008EB
:108130004F82000800000000000000000000000066
:108140000000000000000000000000004F82000856
:108150004F8200084F8200084F8200084F820008BB
:108160004F8200084F82000800000000000000005D
:1081700000000000000000000000000000000000FF
:10818000000000004F820008000000000000000016
:108190004F82000800F002F800F03CF80AA090E8D6
:1081A000000C82448344AAF10107DA4501D100F0B2
:1081B00031F8AFF2090EBAE80F0013F0010F18BF43
:1081C000FB1A43F001031847AC1C0000CC1C000054
:1081D000103A24BF78C878C1FAD8520724BF30C8F3
:1081E00030C144BF04680C607047000000230024C5
:1081F00000250026103A28BF78C1FBD8520728BFB7
:1082000030C148BF0B6070471FB501F025FE1FBD90
:1082100010B510BD00F0CFF81146FFF7F5FF01F0E3
:108220005BFC00F0EDF803B4FFF7F2FF03BC00F0D5
:10823000F5F800000948804709480047FEE7FEE7D7
:10824000FEE7FEE7FEE7FEE7FEE7FEE7FEE7FEE706
:1082500004480549054A064B704700001590000880
:1082600095810008B0000020B8FE0020B002002078
:10827000B002002053EA020C00F069802DE9F04BB7
:108280004FF00006002B1FBFB3FA83F503FA05F485
:1082900024FA05F65E4012BF1643B2FA82F502FADE
:1082A00005F4C5F120051EBF22FA05FC44EA0C04C2
:1082B000203556EA044C4FEA144418BF641C4FF0B2
:1082C00000084FF00009904271EB030C39D30029EC
:1082D00019BFB1FA81F701FA07F6B0FA80F700FA90
:1082E00007F6C7F120071EBF20FA07FC46EA0C0676
:1082F0002037B6FBF4FCA7EB0507103F07F01F0B78
:10830000CBF120060CFA0BFB2CFA06F644BFB34661
:108310000026202FA4BF5E464FF0000B5BEA060C40
:1083200008BF4FF0010B19EB0B09ABFB027C48EBCC
:108330000608C01B06FB02CC0BFB03CC71EB0C0147
:10834000C1E70B46024641464846BDE8F08B13B5EF
:108350004FF000004FF00001AFF30080BDE81C407B
:1083600070474FF0000200B51346944696462039F8
:1083700022BFA0E80C50A0E80C50B1F12001BFF4DE
:10838000F7AF090728BFA0E80C5048BF0CC05DF844
:1083900004EB890028BF40F8042B08BF704748BF92
:1083A00020F8022B11F0804F18BF00F8012B704706
:1083B000704770477047754600F02CF8AE460500D0
:1083C0006946534620F00700854618B020B5FFF7F0
:1083D0003FFFBDE820404FF000064FF000074FF090
:1083E00000084FF0000B21F00701AC46ACE8C009D3
:1083F000ACE8C009ACE8C009ACE8C0098D467047DC
:1084000010B50446AFF300802046BDE81040FFF7EA
:108410000ABF0000004870474C00002001491820A6
:10842000ABBEFEE726000200704710B504460022EE
:108430000146104600F0A2F821460022BDE8104097
:10844000012000F09BB810B50446002201461046FA
:1084500000F094F821460122BDE81040104600F0DB
:108460008DB810B5044601460122002000F086F8C0
:1084700021460022BDE81040012000F07FB810B571
:10848000012000F0B3F8BDE81040002000F0AEB8C5
:10849000FEE70000F8B505465FF0000605EBC604F0
:1084A0000222E178A07800F06DFC15F8360030B1BA
:1084B000012808D0022806D0032809D103E0E1787A
:1084C000A078012202E0E178A078022200F0E8FB27
:1084D00061792079012200F055FC0023617920792F
:1084E0001A4600F073FC61792079002200F0A8FCA4
:1084F000E179A079012200F045FC0023E179A0791F
:108500001A4600F063FCE179A079002200F098FCA3
:10851000761CF6B2022EC1D3174801F065F801248B
:108520000094697828780023062200F019FE009450
:10853000697A287A0023062200F012FE0F2100201B
:1085400001F088F944F61F61002001F0EBF869782A
:108550002878002201F0FEF8697A287A002201F0DA
:10856000F9F80121002001F08DF9BDE8F840022161
:10857000002001F087B900002C00002010B514463F
:10858000A8B1012831D10A460221002001F03CF9AE
:1085900024B3012C29D100220621104600F050FC02
:1085A00001220721BDE81040002000F049BC0A4626
:1085B0000121002001F028F94CB1012C15D1002235
:1085C0000421104600F03CFC01220521EAE70122CB
:1085D0000421002000F034FC0022F6E701220621ED
:1085E000002000F02DFC0022DBE710BD30B1012897
:1085F00007D101220221002001F006B90122114613
:10860000F9E7704770470000014880687047000034
:108610000C00002002488168027811448160704794
:108620000C0000200B4810B5016841F40071016096
:10863000016841F480610160016841F4807101606A
:10864000032000F061F80F2000F006F800F024F895
:10865000002010BD003C024070B50D4D04464FF4A3
:108660007A712878B1FBF0F00A490968B1FBF0F0A3
:1086700000F0DEFA48B9102C07D200222146501E25
:1086800000F022F800206C6070BD012070BD000079
:108690000C000020180000200A4808B5016841F4C9
:1086A00080410160006800F4804000900548001F90
:1086B000016841F080510160006800F08050009036
:1086C00008BD000044380240F0B40E4B1B680C4655
:1086D000C3F30223C3F10705042D00D90425191D96
:1086E000072901D2002300E0DB1E012606FA05F16E
:1086F000491E214099409E40761E16403143F0BCF1
:1087000001F0D3B90CED00E0064900F0070208685B
:108710004FF6FF03184040EA0220034A1043086066
:10872000704700000CED00E00000FA052DE9F0476D
:108730000E46050065D0DFF81481D8F80000F7B2C6
:1087400000F00700B04207D288F80070D8F80000A7
:1087500000F00700B04254D128683D4C810712D583
:10876000400703D5206840F4E050206028780007D7
:1087700003D5206840F4604020602068A96820F09C
:10878000F000084320602878C0072DD03049686881
:108790000839012812D0022813D0032811D0096803
:1087A000890700292DDA216821F0030101432160A6
:1087B000FFF72AFF814641F2883A0EE009688903F3
:1087C000EFE709688901ECE7FFF71EFFA0EB09015D
:1087D000514502D90320BDE8F0872068696800F0A0
:1087E0000C00B0EB810FEFD1D8F80010404601F03B
:1087F0000701B14207D90770006800F00700B042D6
:1088000001D00120E7E72878400705D52068E9680E
:1088100020F4E050084320602878000706D520683F
:10882000296920F4604040EAC100206000F018F897
:108830002168084AC1F30311515CC8400649086029
:1088400006480068FFF708FF0020C4E7003C02402C
:1088500008380240629E0008180000201000002026
:10886000154810B5006810F00C02144813D01449D4
:10887000042A0FD0082A0ED10F4C241F2268236827
:1088800002F03F025B0207D52068C0F38810A0FB0E
:10889000010106E0084610BD2168C1F38811A1FB63
:1088A00000010023FFF7E6FC2168C1F30141491CE8
:1088B0004900B0FBF1F010BD083802400024F4007C
:1088C00040787D012DE9F84F04006ED02078DFF864
:1088D0004C93C007A9F104054AD009F104000168CE
:1088E000C1F38101012908D00068C0F3810002288A
:1088F0000AD1D9F80000400206D52868800337D590
:1089000060680028E1D033E06068B0F5803F10D0A7
:10891000B0F5A02F286810D020F480302860286897
:1089200020F4802028606068A8B1FFF76DFE06463D
:108930000DE0286840F48030F4E740F4802028609F
:10894000F7E700BFFFF760FE801B642873D8286834
:108950008003F7D50CE0FFF757FE064605E000BFA1
:10896000FFF752FE801B6428F0D828688003F7D4F4
:108970002078DFF8AC8280074FF0000A3ED5A74888
:10898000001D016811F00C0F08D00068C0F38100D1
:1089900002280BD1D9F80000400207D428688007CC
:1089A00016D5E068012800D112E033E1E068B8B1E3
:1089B0000120C8F80000FFF727FE064605E000BFCB
:1089C000FFF722FE801B0228C0D828688007F7D551
:1089D0002868216920F0F80040EAC10028600DE015
:1089E000C8F800A0FFF710FE064604E0FFF70CFEF3
:1089F000801B02281FD828688007F7D4207800073A
:108A000022D5864F87486169703771B101210160B5
:108A1000FFF7FAFD064604E0FFF7F6FD801B02288B
:108A200009D838688007F7D50EE0C0F800A0FFF736
:108A3000EBFD064605E082E0FFF7E6FD801B02281D
:108A40007DD838688007F7D42078400768D5DFF8EC
:108A5000CCB100270BF13C0BDBF80000C0000BD4BD
:108A6000DBF8001041F08051CBF80010DBF800007B
:108A7000012700F0805000906B4E3068C00510D484
:108A8000306840F480703060FFF7BEFD009005E074
:108A9000FFF7BAFD0099401A022850D83068C00587
:108AA000F6D55E4EA0686C3601280FD005283068D8
:108AB00010D020F001003060306820F004003060F9
:108AC000A068B8B1FFF7A0FD00900FE0306840F05B
:108AD0000100F4E740F004003060F7E7FFF794FD91
:108AE0000099411A41F28830814266D83068800787
:108AF000F4D50EE0FFF788FD009007E0FFF784FD56
:108B00000099411A41F28830814256D83068800776
:108B1000F4D42FB1DBF8001021F08051CBF8001015
:108B2000A069C8B33D49091D0968C1F38101022943
:108B30004AD00228504607D0C8F8600000E03CE068
:108B4000FFF762FD04463BE04746C8F86000FFF7C8
:108B50005BFD064605E000BFFFF756FD801B0228BF
:108B60002BD828688001F7D4D4E907010843A16A0B
:108B70002E4A490802EB0141626A41EA8211084328
:108B800094F82C1040EA0161C9F800100120386601
:108B9000FFF73AFD044606E03EE000BFFFF734FD74
:108BA000001B022809D828688001F7D534E000BFEF
:108BB000FFF72AFD001B022802D90320BDE8F88F29
:108BC00028688001F4D427E00128F7D0D9F8000004
:108BD000E26900F4800191421CD1226A00F03F0159
:108BE000914217D147F6C071626A0140B1EB821F12
:108BF00010D1A26A4FF0FF3300F4403103EB520270
:108C0000B1EB024F06D194F82C1000F07060B0EB7D
:108C1000016F01D00120D1E70020CFE704380240E6
:108C200000004742800E4742007000400000FFFFF6
:108C300010B5401EB0F1807F01D3012010BD4FF070
:108C4000E02460610F21601700F02FFF0020A06179
:108C500007202061002010BDFEE7000001238B40AB
:108C600028B101280FD002280CD10A4810E00D29A4
:108C700008D00E2906D00F2904D0074800691840F3
:108C8000C840107070470329FCD00429FAD003486B
:108C90000068F4E71008024000000240100402409F
:108CA00070B58E000F2505FA06F402FA06F3203E91
:108CB000B540B24068B101281BD0022808D107296D
:108CC00029D819480168A14301600168194301606E
:108CD00070BD0D29FCD00E29FAD00F29F8D0134809
:108CE00007290ED8016AA1430162016A1943016292
:108CF00070BD0329FCD00429FAD0072908D80C48F4
:108D0000E0E7416AA9434162416A0A43426270BD99
:108D10000748001D01E00448001D0168A9430160E7
:108D200001680A43026070BD200802400000024052
:108D30002004024010B503234C00A340A24028B1F8
:108D400001280FD002280CD10B4810E00D2908D0C3
:108D50000E2906D00F2904D00848C1689943114351
:108D6000C16010BD0329FCD00429FAD00448016871
:108D700099431143016010BD0C08024000000240FD
:108D80000C04024010B503234C00A340A24028B1BC
:108D900001280FD002280CD1094806E00D2908D07F
:108DA0000E2906D00F2904D00648016899431143C3
:108DB000016010BD0329FCD00429FAD00248F4E771
:108DC00000080240000002400004024070B5012586
:108DD0008D408A4003244E00B440B34050B1012876
:108DE00018D0022815D113480168A9431143016026
:108DF000001D19E00D290CD00E290AD00F2908D02A
:108E00000D484168A943114341608168A14319435A
:108E1000816070BD0329FCD00429FAD0074801689D
:108E2000A94311430160001D0168A143194301607A
:108E300070BD00000408024000000240040402402B
:108E400001238B408A4028B101280FD002280CD181
:108E50000B4810E00D2908D00E2906D00F2904D0A8
:108E60000848416999431143416170470329FCD087
:108E70000429FAD0044801689943114301607047FE
:108E800014080240000002401404024001228A40FB
:108E900050B101280BD002280CD0032803D1074879
:108EA000016811430160704704480C30F8E703483B
:108EB0001030F5E70148001FF2E7000034380240A7
:108EC0000948016841F00101016001688907FCD58A
:108ED00005480830016821F00301016001684FF680
:108EE000F04291430160704700380240FEE7FEE720
:108EF000704710B5FFF7E4FF00210846FFF7C6FFF3
:108F000001210020FFF7C2FF03210020FFF7BEFF71
:108F100000210220FFF7BAFF01210220FFF7B6FF70
:108F20000021BDE810400120FFF7B0BF48B1012883
:108F30000AD002280BD14FF416620321002000F062
:108F400009BC4FF42F72F8E740F2A462F5E77047CE
:108F5000704708B5022211460020FFF713FF0122D7
:108F600002210020FFF79CFE012000230090062232
:108F70000321184600F0F4F840F2A4620321002017
:108F800000F0E8FB0321BDE80840002000F07ABCB7
:108F9000FFF740BB10B592B030216846FFF7E1F90A
:108FA00014210CA8FFF7DDF918480024016841F0EE
:108FB00001010160006800F08050119014480168C0
:108FC00021F4404141F4004101600068069400F43E
:108FD0004040119002200090012003901020049046
:108FE0006846FFF76FFC08B172B6FEE70F20CDE9C7
:108FF0000C040E940F9400210CA81094FFF796FB1C
:10900000002801D072B6FEE712B010BD4038024011
:10901000007000400448016841F470010160024999
:10902000024880390860704788ED00E00080000841
:109030000A490B780A4A881C012B0AD00B78022BAC
:1090400006D1926B42804288921C428001200870B7
:109050007047526B02800878401CF8E73600002009
:10906000000001400D4810B5006800B180474FF086
:109070008040016921F001010161016921F00201D3
:109080000161016921F004010161016921F0080118
:109090000161016921F01001016110BD3C00002057
:1090A0000D4810B5406800B180470C48016821F0B8
:1090B00001010160016821F002010160016821F0F5
:1090C00004010160016821F008010160016821F0DC
:1090D0001001016010BD00003C00002010040040A1
:1090E0000D4810B5806800B180470C48016821F038
:1090F00001010160016821F002010160016821F0B5
:1091000004010160016821F008010160016821F09B
:109110001001016010BD00003C000020100800405C
:109120000D4810B5C06800B180470C48016821F0B7
:1091300001010160016821F002010160016821F074
:1091400004010160016821F008010160016821F05B
:109150001001016010BD00003C000020100C004018
:10916000F0B5059C80B1012871D0BE4D02286FD0AA
:1091700003286ED1BC4F3E1D301D052969D2DFE8A2
:1091800001F080E1F3F1F0004FF08040052978D242
:10919000DFE801F07703213F6000816921F0FF01E2
:1091A00041EA02118161816921F008018161016A4E
:1091B00053B141F002010162012C08D0002C60D1B2
:1091C000016A21F001015BE021F00201F3E7016A8D
:1091D00041F0010154E0816921F47F4141EA02310B
:1091E0008161816921F400618161016A53B141F0BB
:1091F00020010162012C08D0002C42D1016A21F02B
:1092000010013DE021F02001F3E7016A41F0100177
:1092100036E0C16921F0FF0141EA0211C161C16973
:1092200021F00801C161016A53B141F4007101628A
:10923000012C08D0002C24D1016A21F480711FE098
:1092400021F40071F3E7016A41F4807118E0B0E0A5
:109250001FE016E0C16921F47F4141EA0231C1619A
:10926000C16921F40061C161016A5BB141F400513F
:109270000162012C09D0002C03D1016A21F4805134
:109280000162F0BD21F40051F2E7016A41F480511E
:10929000F6E7744E7348361F001D0529F1D2DFE84A
:1092A00001F00304182C3C00EBE7316821F0FF01CA
:1092B00041EA02113160316821F0080131604BE070
:1092C0000160012C73D0002CDBD1016821F0010179
:1092D00036E0316821F47F4141EA02313160316882
:1092E00021F40061316049E00160012C77D0002C4D
:1092F000C7D1016821F0100122E0296821F0FF01A7
:1093000041EA0211296044E00160012C69D0002C7F
:10931000B7D1016821F4807112E0296821F47F41FE
:1093200041EA02312960296821F40061296039E0AD
:109330000160012C6AD0002CA3D1016821F4805176
:109340000160F0BD396821F0FF0141EA0211396086
:10935000396821F00801396001684BB341F002011E
:10936000AEE76DE00FE0FFE7396821F47F4141EAA5
:1093700002313960396821F40061396001687BB3DA
:1093800041F02001B0E7316821F0FF0141EA02110C
:109390003160296821F0080129600168A3B341F414
:1093A0000071B1E7016883B341F40051C0E71CE0EC
:1093B00018E02E4D2E1D301D0529C2D2DFE801F028
:1093C0000304192E4000BCE7296821F0FF0141EA9F
:1093D00002112960296821F008012960BCE719E021
:1093E00015E029E021F002016AE7016841F001017E
:1093F000A6E7296821F47F4141EA02312960296802
:1094000021F400612960B9E713E024E026E021F0AF
:10941000200169E7016841F0100191E7316821F00E
:10942000FF0141EA02113160316821F00801316029
:10943000B3E721F4007167E7016841F480717FE7C9
:10944000316821F47F4141EA02313160316821F411
:1094500000613160A6E721F4005169E7016841F439
:1094600080516DE71C04004018080040180C0040B3
:10947000002138B101280BD0022807D0032804D1DD
:10948000054806E04FF0804041627047034800E025
:109490000348016070470000240800402404004095
:1094A000240C004030B50C4600234FF47A7558B1B7
:1094B000012821D002280FD0032807D114E0294623
:1094C000002000F01DF85B1CA342F8D330BD2946F4
:1094D000022000F015F85B1CA342F8D330BD2946EA
:1094E000032000F00DF85B1CA342F8D330BD2946E1
:1094F000012000F005F85B1CA342F8D330BD00004A
:1095000000B50A46D8B101284CD0022833D0032830
:1095100030D10F2100F09EF91146032000F002F92E
:109520000320FFF7A5FF2D4A106820F0010010600E
:10953000032000F033FA1068C007FCD048E00F2188
:10954000002000F087F91146002000F0EBF8002021
:10955000FFF78EFF4FF08042106920F0010010618C
:10956000002000F01BFA1069C007FCD0106920F041
:109570000100106100BD0F21022000F06BF91146BF
:10958000022000F0CFF80220FFF772FF144A1068A3
:1095900020F001001060022000F000FA1068C007FF
:1095A000FCD015E00F21012000F054F911460120F4
:1095B00000F0B8F80120FFF75BFF0A4A106820F0BE
:1095C00001001060012000F0E9F91068C007FCD02C
:1095D000106820F00100106000BD0000100800407D
:1095E00010040040100C004001780022C1B1012994
:1095F0003CD002295BD0032937D147490A608178E2
:10960000C278C90141EA4211027941EA0212424993
:1096100008390A60407800286ED0012871D078E0BF
:109620004FF080418A608278C378D20142EA4312C7
:10963000037942EA03120A600A6822F001020A6012
:10964000407810B1012804D00BE0086840F0040015
:1096500002E0086820F004000860086820F00200BA
:109660000860486940F00100486170472B490A6072
:109670008178C278C90141EA4211027941EA0212B5
:10968000264908390A60407810B1012804D00BE05F
:10969000086840F0040002E0086820F00400086058
:1096A000086820F0020008601C480C301FE01C49CC
:1096B0000A608178C278C90141EA4211027941EA1F
:1096C0000212174908390A60407810B1012804D005
:1096D0000BE0086840F0040002E0086820F0040095
:1096E0000860086820F0020008600D480C3001682E
:1096F00041F0010101607047086840F0040003E098
:10970000FFE7086820F004000860086820F0020005
:10971000086001480C30EAE708080040080C0040E7
:109720000804004040B101280CD0022808D00328CA
:1097300001D10548016070474FF08040C162704719
:109740000248F7E70248F5E72C0800402C040040E7
:109750002C0C004070B580B101283BD0022821D0EC
:10976000032814D12548031D1C1D251D06290ED2D2
:10977000DFE801F00D2426282A2C4FF0804006292E
:1097800005D2DFE801F004030507090B426370BD51
:10979000826370BDC26370BD026470BD4263826348
:1097A000C263F9E71648031D1C1D251D0629F4D2C6
:1097B000DFE801F0030406080A0CEEE7026070BD62
:1097C0001A6070BD226070BD2A6070BD02601A60B0
:1097D0002260F9E70B4B1D1D2C1D201D0629F4D21C
:1097E000DFE801F0070605040308E7E7EAE7EBE72F
:1097F000E6E7EAE71A602A602260DFE73408004003
:1098000034040040340C004010B413460022642499
:1098100030B1012814D0022806D003280BD10DE066
:109820004FF08042D26A01E0074A0AE0521C5A43D4
:10983000B2FBF4F2521E10BCFFF78CBF034A00E0EB
:10984000034A1268F2E700002C0400402C08004094
:109850002C0C004040B101280CD0022808D003286D
:1098600001D10548016070474FF080408162704728
:109870000248F7E70248F5E72808004028040040BE
:10988000280C004098B101285DD002283ED0032862
:1098900026D13F4A106820F0080010603C48203074
:1098A00006296FD2DFE801F06E5E62666A424FF011
:1098B0008040026822F00802026006290CD2DFE82C
:1098C00001F00B0307101418016A41F0010102E0D6
:1098D000016A41F010010162016841F0010101607B
:1098E0007047016A41F48071F5E7016A41F48051E3
:1098F000F1E7016A41F001010162016A41F01001E2
:109900000162016A41F480710162EEE7214A106848
:1099100020F0080010601F482030062932D2DFE80E
:1099200001F0312125292D0501602BE0016841F06E
:1099300001010160016841F010010160016841F41A
:10994000807101601AE0144A106820F0080010606D
:1099500011482030062915D2DFE801F01404080C64
:109960001003E3E7016841F00101DDE7016841F020
:109970001001D9E7016841F48071D5E7016841F42D
:109980008051D1E7106840F001001060704700007E
:109990000008004000040040000C004038B10128DD
:1099A0000AD0022806D003280FD1084805E04FF05E
:1099B000804002E0064800E00648016841F00801E6
:1099C0000160016841F0010101607047000800403A
:1099D00000040040000C004010B501220021104698
:1099E000FFF7D0F900231A4619460120FFF7EEF9D8
:1099F000002211460120FFF723FA00220821104619
:109A0000FFF7C0F902220821BDE810400020FFF74F
:109A100091B900001CB500248DF8004004E06A46AE
:109A200008210020FFF71AF99DF800000028F6D061
:109A3000019409E0401C0190012000F046F86A46BC
:109A400008210020FFF70AF99DF80000012801987D
:109A5000F0D000F0F0F89FED081B53EC112B00F054
:109A6000FDF89FED071B53EC112B00F0F7F800F009
:109A7000B5F801901CBD0000006F8104C58FA13FA7
:109A8000666666666666254010B5012200211046AE
:109A9000FFF7D6F90A2000F018F80022BDE81040C0
:109AA00011460120FFF7CCB9FEE70907090E00288F
:109AB00004DB00F1E02080F80014704700F00F0094
:109AC00000F1E02080F8141D7047000100E000BFA5
:109AD000401EFCD270470000FEF7A4FDFFF75AFAC3
:109AE000FFF707FA3A48FEF7D5FCFFF732FAFFF71F
:109AF00073FF3848FFF778FD0120FFF717FA4FF49E
:109B0000FA710120FFF7CEFC334C4FF4C87600BF4A
:109B1000FFF7BAFFFFF77EFF206043E0FEF7AFFCE0
:109B2000FFF7B2FFFFF776FF20600020FFF7FEF996
:109B30004FF47A7529460120FFF7B4FCFFF7A4FF24
:109B4000FFF768FF60600220FFF7F0F92946012067
:109B5000FFF7A8FCFFF798FFFFF75CFFA06001206C
:109B6000FFF7E4F929460120FFF79CFCFFF78CFF83
:109B7000FFF750FF2060462817D8D4E9010188423A
:109B800005D9462803D93C20FEF76BFC06E081424C
:109B900008D9462906D93C20FEF755FC314601205C
:109BA000FFF780FC20684628B8D3FFF76DFFFFF76A
:109BB00031FF206009E000BFFFF766FFFFF72AFFD3
:109BC00020601920FEF731FC20684628A0D9F3E771
:109BD0001C00002031000020000000204FEA11533B
:109BE000A3F58063D3F11E03A8BFD3F1200C08DBDB
:109BF0004FF0004242EAC12252EA505232FA03F0D8
:109C0000704709420BD4102BC4BF0020704703F5E6
:109C1000787CBCF1FF3F05D04FF0FF3070474FF02C
:109C20000000704770B500F0C3F800BF499224806F
:109C300000207047F0E7B0FA80F310FA03F10AD081
:109C4000C3F11D0303F580634FEA41504FEA03520D
:109C500002EBD12170474FF000007047DFF848C198
:109C600070B51CEA111E1EBF1CEA13159EEA0C0FEC
:109C700095EA0C0F00F06F8081EA030423EA4C138D
:109C80004EEAD47E21EA4C1141F4801143F4801352
:109C9000AE44A1FB024CA0FB0365AEF17F7E3619FA
:109CA00055EB0C05A1FB034C4CF10003A0FB021C7F
:109CB00016EB0C06654153F10003094218BF46F04C
:109CC000010613F4007F0BD14FEA03314FEA053050
:109CD000340341EA155140EA16506FF003020AE0DE
:109CE0004FEAC3214FEAC520F40241EA555140EA48
:109CF00056506FF0020202EB2E4201EB025585EA4C
:109D0000CE710AD05FEA440C18BF24F0004450F131
:109D1000000041F1000120EAD47040F2FE7C62456F
:109D200000D270BDA84214BF4FF080444FF04044B1
:109D3000002E08BF0024BEF1806FA8BFA1F1C04172
:109D4000BDE8704080F282804FF0000001F1C04118
:109D500001F0004170479EEA0C0F0CEA131518BF82
:109D600095EA0C0F06D04FF0000081EA030E0EF0CA
:109D7000004170BD00F01CF88900013E00F007B8FA
:109D800000F009B84FEA430C5FEA5C5C08D081EA56
:109D9000030100F05BB84FEA410C5FEA5C5CF6D16E
:109DA0004FF00000014970470000FF070000F87FF6
:109DB0000EF1020E2EF0030E5EF8046B364205D44F
:109DC000012A43EB030515F5001F12D8012841EBCA
:109DD000010C1CF5001F0CD80ED14FEAD17C15F5F3
:109DE000001F0CEB4C0C0CF1020C08BF4CEBD37CAD
:109DF00004E04FF0080C01E04FEAD37C0CEB4C057B
:109E000026FA05F606F00706B6F1040C06D20EEBAC
:109E1000860CBDE870404CF0010C6047DFE80CF0A8
:109E2000090B02024FF000414FF00000A1F50021A4
:109E300070BD19461046012851EB010418BFD4F536
:109E4000001484BF002001F0004170BD0808A0F597
:109E500000114FEA310170474FF04070E1EE100AF7
:109E60007047000000000000000001020304060724
:109E700008090000949E0008000000203C0000003B
:109E8000D0810008D09E00083C0000207CFE00002D
:109E9000EC8100080000000000000000000000004D
:109EA0000100000010000000000000000024F40089
:109EB0000001000000040005000200010006000788
:109EC000000100000001000000000100000000008F
:0400000508008195D9
:00000001FF
