:020000040801F1
:10000000E8FE0020350201083B0A0108E506010868
:10001000390A01081D030108CD160108000000007F
:10002000000000000000000000000000B50A010808
:1000300091040108000000003D0A0108190B0108A5
:100040004F0201084F0201084F0201084F02010848
:100050004F0201084F0201089504010849050108F3
:100060006905010889050108A90501084F02010871
:100070004F0201084F0201084F0201084F02010818
:100080004F0201084F0201084F0201080000000062
:10009000000000000000000000000000C905010889
:1000A0004F0201084F0201084F0201084D0B0108E1
:1000B000810B0108BD0B0108FD0B01084F0201086F
:1000C0004F0201084F0201084F0201084F020108C8
:1000D0004F0201084F0201084F0201080000000012
:1000E000B50401084F0201084F020108000000009A
:1000F0000000000000000000000000004F020108A6
:10010000000000004F0201083D0C01084F020108E9
:1001100000000000000000000000000000000000DF
:100120004F0201084F0201084F0201084F02010867
:100130004F02010800000000000000000000000065
:100140000000000000000000000000004F02010855
:100150004F0201084F0201084F0201084F02010837
:100160004F0201084F0201080000000000000000DB
:10017000000000000000000000000000000000007F
:10018000000000004F020108000000000000000015
:100190004F02010800F002F800F03CF80AA090E8D5
:1001A000000C82448344AAF10107DA4501D100F032
:1001B00031F8AFF2090EBAE80F0013F0010F18BFC3
:1001C000FB1A43F0010318473C1800005C180000BC
:1001D000103A24BF78C878C1FAD8520724BF30C873
:1001E00030C144BF04680C60704700000023002445
:1001F00000250026103A28BF78C1FBD8520728BF37
:1002000030C148BF0B6070471FB501F0F5FB1FBD43
:1002100010B510BD00F031F81146FFF7F5FF01F001
:100220005DFA00F04FF803B4FFF7F2FF03BC00F0F3
:1002300057F800000948804709480047FEE7FEE7F5
:10024000FEE7FEE7FEE7FEE7FEE7FEE7FEE7FEE786
:1002500004480549054A064B70470000310B010868
:1002600095010108E0000020E8FE0020E0020020E7
:10027000E0020020704770477047754600F02CF888
:10028000AE4605006946534620F00700854618B083
:1002900020B5FFF7DDFFBDE820404FF000064FF02E
:1002A00000074FF000084FF0000B21F00701AC46AB
:1002B000ACE8C009ACE8C009ACE8C009ACE8C009CA
:1002C0008D46704710B50446AFF300802046BDE868
:1002D0001040FFF7A8BF00000048704780000020D2
:1002E00001491820ABBEFEE726000200704710B59A
:1002F000044600220146104600F086F821460022FE
:10030000BDE81040012000F07FB810B5012000F0DA
:10031000B3F8BDE81040002000F0AEB8FEE70000E2
:10032000F8B505465FF0000605EBC6040222E17849
:10033000A07800F0CDFA15F8360030B1012808D0C9
:10034000022806D0032809D103E0E178A078012231
:1003500002E0E178A078022200F048FA6179207981
:10036000012200F0B5FA0023617920791A4600F0E5
:10037000D3FA61792079002200F008FBE179A079B5
:10038000012200F0A5FA0023E179A0791A4600F0D5
:10039000C3FAE179A079002200F0F8FA761CF6B2EF
:1003A000022EC1D3174800F0ADFE012400946978F5
:1003B00028780023062200F061FC0094697A287AEC
:1003C0000023062200F05AFC0F21002000F0D0FF8D
:1003D00044F61F61002000F033FF6978287800227E
:1003E00000F046FF697A287A002200F041FF0121DF
:1003F000002000F0D5FFBDE8F8400221002000F009
:10040000CFBF00001000002010B51446A8B101288D
:1004100031D10A460221002000F084FF24B3012CD0
:1004200029D100220621104600F0B0FA012207214E
:10043000BDE81040002000F0A9BA0A4601210020C2
:1004400000F070FF4CB1012C15D1002204211046A0
:1004500000F09CFA01220521EAE701220421002094
:1004600000F094FA0022F6E701220621002000F0B5
:100470008DFA0022DBE710BD30B1012807D101223F
:100480000221002000F04EBF01221146F9E770471B
:1004900070470000054810B5006800B18047044867
:1004A000016841F00101016010BD00004000002022
:1004B000143C014010B5224C20684105214807D565
:1004C000806A00280FD08047206840F4806009E0EF
:1004D0002168090508D5C06A002804D08047206833
:1004E00040F40060206010BD2168C90407D5006B8E
:1004F0000028F8D08047206840F48050F2E7216857
:10050000890407D5406B0028EDD08047206840F46F
:100510000050E7E72168490407D5806B0028E2D046
:100520008047206840F48040DCE721680904DAD580
:10053000C06B0028D7D08047206840F40040D1E746
:10054000143C014040000020054810B5406800B14F
:1005500080470448016841F00201016010BD0000BD
:1005600040000020143C0140054810B5806800B1EF
:1005700080470448016841F00401016010BD00009B
:1005800040000020143C0140054810B5C06800B18F
:1005900080470448016841F00801016010BD000077
:1005A00040000020143C0140054810B5006900B12E
:1005B00080470448016841F01001016010BD00004F
:1005C00040000020143C014010B51A4C2068810600
:1005D000194801D540691AE02168490608D58069A3
:1005E000002804D08047206840F04000206010BD03
:1005F0002168090607D5C0690028F8D0804720681F
:1006000040F08000F2E72168C90507D5006A00289C
:10061000EDD08047206840F02000E7E72168890599
:10062000E5D5406A0028E2D08047206840F4007099
:10063000DCE70000143C01404000002010B503211D
:10064000084600F0ADFE4FF40C71012000F0E6FC0E
:100650000321084600F04EFFBDE8104040F29761CC
:10066000012000F0DBBC10B50321084600F098FE25
:100670004FF40C742146012000F0D0FC0321084601
:1006800000F038FF2146BDE81040012000F0C6BC54
:1006900008B502220821012000F01AF902220821DF
:1006A000012000F0A3F80E4800F02CFD01200321EA
:1006B000009000230622084600F0E0FA0E210320F5
:1006C00000F056FE1B21032000F0BAFD03210D228D
:1006D000084600F0CDFDBDE8084000F0F5B9000087
:1006E00015000020FEE700002DE9F0410E46074608
:1006F0000321084600F054FE42F22831012000F0A8
:100700008DFC0321084600F0F5FE41F29411012012
:1007100000F084FC0725012404FA05F03840E84085
:1007200005D0FFF78BFF2DB16D1EEDB2F4E7FFF79B
:100730009AFFF8E7F843C7B25FF0070504FA05F03F
:100740003840E84005D0FFF779FF2DB16D1EEDB2BE
:10075000F4E7FFF788FFF8E75FF0070504FA05F014
:100760003040E84005D0FFF769FF2DB16D1EEDB2B6
:10077000F4E7FFF778FFF8E7F043C7B25FF007054B
:1007800004FA05F63E40EE4005D0FFF757FF2DB1C5
:100790006D1EEDB2F4E7FFF766FFF8E7BDE8F04144
:1007A0000321084600F0A6BE01238B4028B1012892
:1007B0000FD002280CD10A4810E00D2908D00E29CC
:1007C00006D00F2904D0074800691840C8401070AF
:1007D00070470329FCD00429FAD003480068F4E7E5
:1007E00010080240000002401004024070B58E0064
:1007F0000F2505FA06F402FA06F3203EB540B24092
:1008000068B101281BD0022808D1072929D8194826
:100810000168A143016001681943016070BD0D29A1
:10082000FCD00E29FAD00F29F8D0134807290ED88A
:10083000016AA1430162016A1943016270BD032983
:10084000FCD00429FAD0072908D80C48E0E7416A0F
:10085000A9434162416A0A43426270BD0748001DD4
:1008600001E00448001D0168A943016001680A43D2
:10087000026070BD200802400000024020040240D7
:1008800010B503234C00A340A24028B101280FD08B
:1008900002280CD10B4810E00D2908D00E2906D0F3
:1008A0000F2904D00848C16899431143C16010BDA5
:1008B0000329FCD00429FAD0044801689943114364
:1008C000016010BD0C080240000002400C04024010
:1008D00010B503234C00A340A24028B101280FD03B
:1008E00002280CD1094806E00D2908D00E2906D0AF
:1008F0000F2904D00648016899431143016010BDD7
:100900000329FCD00429FAD00248F4E70008024089
:10091000000002400004024070B501258D408A406D
:1009200003244E00B440B34050B1012818D002282F
:1009300015D113480168A94311430160001D19E056
:100940000D290CD00E290AD00F2908D00D48416876
:10095000A943114341608168A1431943816070BD7F
:100960000329FCD00429FAD007480168A9431143A0
:100970000160001D0168A1431943016070BD0000C2
:1009800004080240000002400404024001238B409E
:100990008A4028B101280FD002280CD10B4810E062
:1009A0000D2908D00E2906D00F2904D00848416926
:1009B00099431143416170470329FCD00429FAD0BF
:1009C00004480168994311430160704714080240CC
:1009D000000002401404024001228A4050B1012864
:1009E0000BD002280CD0032803D10748016811431B
:1009F0000160704704480C30F8E703481030F5E711
:100A00000148001FF2E7000034380240094801683D
:100A100041F00101016001688907FCD505480830F3
:100A2000016821F00301016001684FF6F042914333
:100A30000160704700380240FEE7FEE7704710B5DE
:100A4000FFF7E4FF00210120FFF7C6FF0021084661
:100A5000FFF7C2FF01210020FFF7BEFF02210020A7
:100A6000FFF7BAFF03210020FFF7B6FF00210220A5
:100A7000FFF7B2FF01210220FFF7AEFF0221084677
:100A8000FFF7AAFF0E21BDE810400120FFF7A4BF29
:100A900048B101280AD002280BD140F628220321B0
:100AA000002000F0E5BB4FF42F72F8E740F2A4629B
:100AB000F5E7704770474FF0E0210A6922F0020223
:100AC00042EA4000086170474FF0E020016921F0E0
:100AD000040101610020FFF7EEBF08B502221146B4
:100AE0000020FFF7F5FE012202210020FFF77EFE25
:100AF00001200023009006220321184600F0BEF8D2
:100B000040F2A4620321002000F0B2FB0321BDE803
:100B10000840002000F044BC044810B5006800B153
:100B200080474FF0E020006910BD00002C0000203D
:100B30000448016841F470010160024902488039AB
:100B40000860704788ED00E0000001080A490B7852
:100B50000A4A881C012B0AD00B78022B06D1926B13
:100B600042804288921C4280012008707047526B7C
:100B700002800878401CF8E72000002000000140B7
:100B80000D4810B5006800B180474FF08040016902
:100B900021F001010161016921F002010161016996
:100BA00021F004010161016921F00801016101697D
:100BB00021F01001016110BD300000200D4810B57A
:100BC000406800B180470C48016821F001010160D4
:100BD000016821F002010160016821F00401016057
:100BE000016821F008010160016821F01001016035
:100BF00010BD000030000020100400400D4810B56A
:100C0000806800B180470C48016821F00101016053
:100C1000016821F002010160016821F00401016016
:100C2000016821F008010160016821F010010160F4
:100C300010BD000030000020100800400D4810B525
:100C4000C06800B180470C48016821F001010160D3
:100C5000016821F002010160016821F004010160D6
:100C6000016821F008010160016821F010010160B4
:100C700010BD000030000020100C0040F0B5059CB5
:100C800080B1012871D0BE4D02286FD003286ED1EB
:100C9000BC4F3E1D301D052969D2DFE801F080E11F
:100CA000F3F1F0004FF08040052978D2DFE801F041
:100CB0007703213F6000816921F0FF0141EA0211C1
:100CC0008161816921F008018161016A53B141F0BC
:100CD00002010162012C08D0002C60D1016A21F0D0
:100CE00001015BE021F00201F3E7016A41F001013B
:100CF00054E0816921F47F4141EA023181618169D7
:100D000021F400618161016A53B141F02001016267
:100D1000012C08D0002C42D1016A21F010013DE0E5
:100D200021F02001F3E7016A41F0100136E0C169CA
:100D300021F0FF0141EA0211C161C16921F00801FE
:100D4000C161016A53B141F400710162012C08D004
:100D5000002C24D1016A21F480711FE021F400717C
:100D6000F3E7016A41F4807118E0B0E01FE016E09B
:100D7000C16921F47F4141EA0231C161C16921F4B5
:100D80000061C161016A5BB141F400510162012C53
:100D900009D0002C03D1016A21F480510162F0BD19
:100DA00021F40051F2E7016A41F48051F6E7744EF4
:100DB0007348361F001D0529F1D2DFE801F0030456
:100DC000182C3C00EBE7316821F0FF0141EA0211E9
:100DD0003160316821F0080131604BE00160012C85
:100DE00073D0002CDBD1016821F0010136E03168BD
:100DF00021F47F4141EA02313160316821F4006120
:100E0000316049E00160012C77D0002CC7D1016826
:100E100021F0100122E0296821F0FF0141EA0211CE
:100E2000296044E00160012C69D0002CB7D1016831
:100E300021F4807112E0296821F47F4141EA0231F6
:100E40002960296821F40061296039E00160012CE2
:100E50006AD0002CA3D1016821F480510160F0BD5B
:100E6000396821F0FF0141EA02113960396821F047
:100E70000801396001684BB341F00201AEE76DE053
:100E80000FE0FFE7396821F47F4141EA0231396020
:100E9000396821F40061396001687BB341F02001B9
:100EA000B0E7316821F0FF0141EA021131602968A1
:100EB00021F0080129600168A3B341F40071B1E792
:100EC000016883B341F40051C0E71CE018E02E4DE7
:100ED0002E1D301D0529C2D2DFE801F00304192EB2
:100EE0004000BCE7296821F0FF0141EA02112960B6
:100EF000296821F008012960BCE719E015E029E024
:100F000021F002016AE7016841F00101A6E72968C2
:100F100021F47F4141EA02312960296821F400610E
:100F20002960B9E713E024E026E021F0200169E719
:100F3000016841F0100191E7316821F0FF0141EAB9
:100F400002113160316821F008013160B3E721F40A
:100F5000007167E7016841F480717FE7316821F42F
:100F60007F4141EA02313160316821F40061316032
:100F7000A6E721F4005169E7016841F480516DE76B
:100F80001C04004018080040180C0040002138B133
:100F900001280BD0022807D0032804D1054806E019
:100FA0004FF0804041627047034800E00348016011
:100FB000704700002408004024040040240C004036
:100FC00030B50C4600234FF47A7558B1012821D072
:100FD00002280FD0032807D114E02946002000F092
:100FE0001DF85B1CA342F8D330BD2946022000F057
:100FF00015F85B1CA342F8D330BD2946032000F04E
:101000000DF85B1CA342F8D330BD2946012000F047
:1010100005F85B1CA342F8D330BD000000B50A46BA
:10102000D8B101284CD0022833D0032830D10F2169
:1010300000F09EF91146032000F002F90320FFF7AB
:10104000A5FF2D4A106820F001001060032000F079
:1010500033FA1068C007FCD048E00F21002000F0F0
:1010600087F91146002000F0EBF80020FFF78EFF13
:101070004FF08042106920F001001061002000F064
:101080001BFA1069C007FCD0106920F00100106144
:1010900000BD0F21022000F06BF91146022000F084
:1010A000CFF80220FFF772FF144A106820F0010009
:1010B0001060022000F000FA1068C007FCD015E0B4
:1010C0000F21012000F054F91146012000F0B8F87A
:1010D0000120FFF75BFF0A4A106820F00100106052
:1010E000012000F0E9F91068C007FCD0106820F07A
:1010F0000100106000BD0000100800401004004016
:10110000100C004001780022C1B101293CD0022915
:101110005BD0032937D147490A608178C278C90179
:1011200041EA4211027941EA0212424908390A6051
:10113000407800286ED0012871D078E04FF08041CF
:101140008A608278C378D20142EA4312037942EA84
:1011500003120A600A6822F001020A60407810B1A6
:10116000012804D00BE0086840F0040002E00868A1
:1011700020F004000860086820F002000860486958
:1011800040F00100486170472B490A608178C278BD
:10119000C90141EA4211027941EA0212264908399D
:1011A0000A60407810B1012804D00BE0086840F0D4
:1011B000040002E0086820F004000860086820F0DD
:1011C000020008601C480C301FE01C490A6081784E
:1011D000C278C90141EA4211027941EA0212174973
:1011E00008390A60407810B1012804D00BE0086883
:1011F00040F0040002E0086820F00400086008687D
:1012000020F0020008600D480C30016841F0010137
:1012100001607047086840F0040003E0FFE70868D9
:1012200020F004000860086820F00200086001480F
:101230000C30EAE708080040080C004008040040B1
:1012400040B101280CD0022808D0032801D105485C
:10125000016070474FF08040C16270470248F7E775
:101260000248F5E72C0800402C0400402C0C0040FC
:1012700070B580B101283BD0022821D0032814D1B9
:101280002548031D1C1D251D06290ED2DFE801F08F
:101290000D2426282A2C4FF08040062905D2DFE8AD
:1012A00001F004030507090B426370BD826370BD42
:1012B000C26370BD026470BD42638263C263F9E7BA
:1012C0001648031D1C1D251D0629F4D2DFE801F078
:1012D000030406080A0CEEE7026070BD1A6070BDD8
:1012E000226070BD2A6070BD02601A602260F9E75A
:1012F0000B4B1D1D2C1D201D0629F4D2DFE801F02B
:10130000070605040308E7E7EAE7EBE7E6E7EAE7AD
:101310001A602A602260DFE734080040340400408D
:10132000340C004010B413460022642430B101286C
:1013300014D0022806D003280BD10DE04FF08042D4
:10134000D26A01E0074A0AE0521C5A43B2FBF4F2A7
:10135000521E10BCFFF78CBF034A00E0034A12681C
:10136000F2E700002C0400402C0800402C0C004048
:1013700040B101280CD0022808D0032801D105482B
:10138000016070474FF08040816270470248F7E784
:101390000248F5E72808004028040040280C0040D7
:1013A00098B101285DD002283ED0032826D13F4ABB
:1013B000106820F0080010603C48203006296FD2E9
:1013C000DFE801F06E5E62666A424FF080400268BC
:1013D00022F00802026006290CD2DFE801F00B03BC
:1013E00007101418016A41F0010102E0016A41F09E
:1013F00010010162016841F0010101607047016A5A
:1014000041F48071F5E7016A41F48051F1E7016A26
:1014100041F001010162016A41F010010162016ABB
:1014200041F480710162EEE7214A106820F0080063
:1014300010601F482030062932D2DFE801F0312148
:1014400025292D0501602BE0016841F001010160B3
:10145000016841F010010160016841F48071016090
:101460001AE0144A106820F008001060114820307B
:10147000062915D2DFE801F01404080C1003E3E795
:10148000016841F00101DDE7016841F01001D9E791
:10149000016841F48071D5E7016841F48051D1E7DA
:1014A000106840F001001060704700000008004024
:1014B00000040040000C004038B101280AD0022886
:1014C00006D003280FD1084805E04FF0804002E025
:1014D000064800E00648016841F008010160016823
:1014E00041F0010101607047000800400004004025
:1014F000000C004098B101285AD002283AD00328A5
:1015000022D13B48026822F00102026038482030B4
:10151000062919D2DFE801F0185C6064683F4FF0DB
:101520008040026822F00102026006290CD2DFE846
:1015300001F00B03070C1014016A21F0010102E015
:10154000016A21F0100101627047016A21F4807183
:10155000F9E7016A21F48051F5E7016A21F0010100
:101560000162016A21F010010162016A21F48071B7
:101570000162EEE71F48026822F0010202601D4886
:1015800020300629E0D2DFE801F00323272B2F06C5
:10159000DAE701607047016821F00101016001682C
:1015A00021F010010160016821F4807101601BE0ED
:1015B0001148026822F0010202600F48203006291B
:1015C000E8D2DFE801F00405090D1103E3E7E1E7E4
:1015D000016821F00101DCE7016821F01001D8E782
:1015E000016821F48071D4E7016821F48051D0E7CB
:1015F0000008004000040040000C004010B501222B
:1016000000211046FFF764F900231A46194601200D
:10161000FFF782F9002211460120FFF7B7F90022F7
:1016200008211046FFF754F902220821BDE81040B6
:101630000020FFF725B900001CB500248DF80040FC
:1016400004E06A4608210020FFF7AEF89DF800008C
:101650000028F6D0019409E0401C0190012000F020
:1016600036F86A4608210020FFF79EF89DF8000032
:1016700001280198F0D000F0AEF89FED081B53EC64
:10168000112B00F0BBF89FED071B53EC112B00F062
:10169000B5F800F073F801901CBD0000006F8104E4
:1016A000C58FA13F666666666666254010B5012255
:1016B00000211046FFF76AF90A2000F008F800221E
:1016C000BDE8104011460120FFF760B9FEE70001B8
:1016D00000E000BF401EFCD270470000FFF7AFF9EA
:1016E0002348FEF71DFE2348FFF70CFDFEF7D0FF51
:1016F000FFF784FFFFF7F1F90120FFF7C9F94FF475
:10170000FA710120FFF75CFC1B4C00BFFFF7CEFF16
:10171000FFF792FF20600FE0FEF7F7FDFFF7C6FF2F
:10172000FFF78AFFC1B220600520FEF7DDFF6421CC
:101730000120FFF745FC20684628EDD3FFF7B6FFF0
:10174000FFF77AFF206010E0FFF7B0FFFFF774FFAC
:10175000C1B220600520FEF7C7FF64210120FFF71A
:101760002FFC1920FEF7C3FD20684628CED9EBE7F1
:10177000000000201A000020280000204FEA11532A
:10178000A3F58063D3F11E03A8BFD3F1200C08DBBF
:101790004FF0004242EAC12252EA505232FA03F0BC
:1017A000704709420BD4102BC4BF0020704703F5CB
:1017B000787CBCF1FF3F05D04FF0FF3070474FF011
:1017C0000000704770B500F0C3F800BF4992248054
:1017D00000207047F0E7B0FA80F310FA03F10AD066
:1017E000C3F11D0303F580634FEA41504FEA0352F2
:1017F00002EBD12170474FF000007047DFF848C17D
:1018000070B51CEA111E1EBF1CEA13159EEA0C0FD0
:1018100095EA0C0F00F06F8081EA030423EA4C1371
:101820004EEAD47E21EA4C1141F4801143F4801336
:10183000AE44A1FB024CA0FB0365AEF17F7E3619DE
:1018400055EB0C05A1FB034C4CF10003A0FB021C63
:1018500016EB0C06654153F10003094218BF46F030
:10186000010613F4007F0BD14FEA03314FEA053034
:10187000340341EA155140EA16506FF003020AE0C2
:101880004FEAC3214FEAC520F40241EA555140EA2C
:1018900056506FF0020202EB2E4201EB025585EA30
:1018A000CE710AD05FEA440C18BF24F0004450F116
:1018B000000041F1000120EAD47040F2FE7C624554
:1018C00000D270BDA84214BF4FF080444FF0404496
:1018D000002E08BF0024BEF1806FA8BFA1F1C04157
:1018E000BDE8704080F282804FF0000001F1C041FD
:1018F00001F0004170479EEA0C0F0CEA131518BF67
:1019000095EA0C0F06D04FF0000081EA030E0EF0AE
:10191000004170BD00F01CF88900013E00F007B8DE
:1019200000F009B84FEA430C5FEA5C5C08D081EA3A
:10193000030100F05BB84FEA410C5FEA5C5CF6D152
:101940004FF00000014970470000FF070000F87FDA
:101950000EF1020E2EF0030E5EF8046B364205D433
:10196000012A43EB030515F5001F12D8012841EBAE
:10197000010C1CF5001F0CD80ED14FEAD17C15F5D7
:10198000001F0CEB4C0C0CF1020C08BF4CEBD37C91
:1019900004E04FF0080C01E04FEAD37C0CEB4C055F
:1019A00026FA05F606F00706B6F1040C06D20EEB91
:1019B000860CBDE870404CF0010C6047DFE80CF08D
:1019C000090B02024FF000414FF00000A1F5002189
:1019D00070BD19461046012851EB010418BFD4F51B
:1019E000001484BF002001F0004170BD0808A0F57C
:1019F00000114FEA310170474FF04070E1EE100ADC
:101A000070470000241A0108000000203000000088
:101A1000D0010108541A010830000020B8FE00006F
:101A2000EC010108000100000004000500020001B3
:101A30000006000700010000000300000000010094
:101A40000000000001000000000000000000000095
:041A50000000000092
:040000050801019558
:00000001FF
