:020000040800F2
:1000000000000120E1020008B13B0008C33A0008EB
:10001000AD3B000891230008AB3F00080000000042
:10002000000000000000000000000000313C00085B
:10003000F923000800000000B53B0008333C00082D
:10004000FB020008FB020008FB020008FB0200089C
:10005000FB020008FB020008FB020008FB0200088C
:10006000FB020008FB020008FB020008FB0200087C
:10007000FB020008FB020008FB020008FB0200086C
:10008000FB020008FB020008FB0200080000000061
:10009000000000000000000000000000FB0200085B
:1000A000FB020008FB020008FB020008FB0200083C
:1000B000FB020008FB020008FB020008FB0200082C
:1000C000FB020008FB020008FB020008FB0200081C
:1000D000FB020008FB020008FB0200080000000011
:1000E000FB020008FB020008FB0200080000000001
:1000F000000000000000000000000000FB020008FB
:1001000000000000FB020008FB020008FB020008E0
:1001100000000000000000000000000000000000DF
:10012000FB020008FB020008FB020008FB020008BB
:10013000FB020008000000000000000000000000BA
:10014000000000000000000000000000FB020008AA
:10015000FB020008FB020008FB020008FB0200088B
:10016000FB020008FB020008000000000000000085
:10017000000000000000000000000000000000007F
:1001800000000000FB02000800000000000000006A
:10019000FB02000800F002F800F092F80AA090E8D4
:1001A000000C82448344AAF10107DA4501D100F032
:1001B00087F8AFF2090EBAE80F0013F0010F18BF6D
:1001C000FB1A43F0010318470040000020400000E4
:1001D000103A24BF78C878C1FAD8520724BF30C873
:1001E00030C144BF04680C60704700000023002445
:1001F00000250026103A28BF78C1FBD8520728BF37
:1002000030C148BF0B6070476E2900F0FD81702936
:1002100000F03F83662903F04887652903F045878E
:10022000672903F04287612903F0418703681B0AAD
:1002300028BF41F08001692900F0AA81642900F0FB
:10024000A781752900F0A4816F2900F0CC8278295C
:1002500000F00B83E92900F06782E42900F0648252
:10026000F52900F06182EF2900F0C982F82900F039
:100270000A830368DB0928BF41F08001632901F08C
:100280000D80732901F01280E32901F01D80F3290C
:1002900001F02280002070471FB503F001FF01F03C
:1002A0006DF804000020002103F0E4FE401C6060B3
:1002B0000020002103F0C8FEE0601FBD10B510BD96
:1002C00001F02EF81146FFF7E7FF03F0ACFE01F056
:1002D0000BF903B4FFF7F2FF03BC01F053F9000080
:1002E0000948804709480047FEE7FEE7FEE7FEE7CA
:1002F000FEE7FEE7FEE7FEE7FEE7FEE70448054906
:10030000054A064B70470000D93C000895010008DB
:10031000F801002000000120F8030020F80300206D
:1003200053EA020C00F069802DE9F04B4FF0000613
:10033000002B1FBFB3FA83F503FA05F424FA05F680
:100340005E4012BF1643B2FA82F502FA05F4C5F117
:1003500020051EBF22FA05FC44EA0C04203556EAAB
:10036000044C4FEA144418BF641C4FF000084FF0CF
:100370000009904271EB030C39D3002919BFB1FA7F
:1003800081F701FA07F6B0FA80F700FA07F6C7F12D
:1003900020071EBF20FA07FC46EA0C062037B6FBF2
:1003A000F4FCA7EB0507103F07F01F0BCBF120066D
:1003B0000CFA0BFB2CFA06F644BFB3460026202F9E
:1003C000A4BF5E464FF0000B5BEA060C08BF4FF07F
:1003D000010B19EB0B09ABFB027C48EB0608C01BB9
:1003E00006FB02CC0BFB03CC71EB0C01C1E70B4607
:1003F000024641464846BDE8F08B13B54FF0000079
:100400004FF00001AFF30080BDE81C4070470000D2
:100410001CB50C46064B7B4469460090204600F014
:100420000CF904460020694600F01AF920461CBD6C
:10043000470200004FF000020429C0F0128010F0C3
:10044000030C00F01B80CCF1040CBCF1020F18BFB0
:1004500000F8012BA8BF20F8022BA1EB0C0100F043
:100460000DB85FEAC17C24BF00F8012B00F8012B16
:1004700048BF00F8012B70474FF0000200B513464B
:1004800094469646203922BFA0E80C50A0E80C50B4
:10049000B1F12001BFF4F7AF090728BFA0E80C5065
:1004A00048BF0CC05DF804EB890028BF40F8042B5E
:1004B00008BF704748BF20F8022B11F0804F18BFCB
:1004C00000F8012B704770477047704770B50446BD
:1004D00085690068C10601D5302600E02026C007E6
:1004E00007D070BDD4E9012130469047206A401CF6
:1004F00020626D1EF6D570BD70B504468569007822
:10050000C00707D170BDD4E9012120209047206A9F
:10051000401C20626D1EF6D570BD09684A0501D5E4
:1005200040B27047C905FCD500B2704709684A055A
:1005300001D5C0B27047C905FCD580B2704770B50F
:100540000C460546012A05D02878800600D5EA69C0
:10055000002302E0012305E05B1C934202D2E05C31
:100560000028F9D1A869E618C01AA861286A1844B9
:1005700028622846FFF7AAFF04E0D5E9012114F814
:10058000010B9047B442F8D32846FFF7B5FF70BD82
:100590002DE9F0410646002410687529314616A55C
:1005A00010D0FFF7BAFF002802DA404213A507E097
:1005B00031688A0701D512A502E0490704D511A5C3
:1005C000012401E0FFF7B2FF00210A2206F124070F
:1005D00009E0B0FBF2FCB0FBF2F302FB1C00303090
:1005E00078541846491C0028F3D123462A46304641
:1005F000BDE8F04100F061BA000000002D000000ED
:100600002B0000002000000011680268006A5305FA
:1006100001D508700AE0D30501D5088006E013066D
:1006200003D5C217C1E9000200E00860012070474D
:1006300001694A1C02610878704700B58FB0CDE9A6
:1006400001310021059105497944CDE90310114696
:10065000684600F029F90FB000BD0000E5FFFFFF7C
:100660000A6802F8010B0A60704700002DE9FF5F7D
:1006700015468A460446DFF8AC80F8440027D8E9DE
:1006800000103E46CDE9001010E03AF816106A4618
:1006900002A800F025FE411C07D02178890603D569
:1006A000E269391891420DD80744761C20788006FB
:1006B00002D5E069B84205DDAE42E6DB3AF8160045
:1006C0000028E2D1A069C01BA0612046FFF7FEFE12
:1006D000D8E90010CDE90010002017E03AF8181012
:1006E0006A4602A800F0FCFDB0F1FF3F81460BD046
:1006F00000250DF1080B05E0D4E901211BF80500E8
:1007000090476D1C4D45F7D308F10100B04280467B
:10071000E4DB206A384420622046FFF7EDFEBDE8A6
:10072000FF9F00004E3A00002DE9F0418046D21DA7
:1007300022F007020025D2E90002F52915A614D0FF
:10074000011E72F1000106DA0023D0EB030063EB17
:10075000020211A608E0D8F800108B0701D50FA6F9
:1007600002E0490701D50EA601251146002408F133
:10077000240704E000F05CF930323A55641C50EA7A
:100780000102F7D12B46324621464046BDE8F041F2
:1007900000F093B9000000002D0000002B000000C5
:1007A0002000000030B4002100F1240408E002F031
:1007B0000705D208303542EA4372DB086554491C0C
:1007C00052EA0305F3D10468002310A2250707D5D8
:1007D000A40600D421B1C46901230DA2641EC46122
:1007E00030BC00F06AB910B5044621461068FFF726
:1007F0009DFE02462046BDE810400023D2E7D21DF0
:1008000022F00701D1E90023CCE70000000000003E
:1008100030000000F0B40D460188090502D5214CD6
:100820007C4402E01F4C7C440E34002100F124067D
:1008300008E002F00F071209E75D42EA03721B09A4
:100840007754491C52EA0307F3D1027800231207B8
:1008500004D5702D06D009B1022311342246F0BC14
:1008600000F02BB901231034F8E770B504460D46AB
:1008700021461068FFF75AFE024629462046BDE889
:1008800070400023C6E7D21D22F00703D3E90023FE
:10089000C0E70368126843F0200303600823C361C4
:1008A0000023B7E7B03800002DE9F05F8946044621
:1008B0004FF0000ADFF874B1FB44C0F820A02046D6
:1008C000E1688847002874D0252806D0D4E90121A2
:1008D0009047206A401C2062F1E700265F462046D0
:1008E000E16888472028054607DB312D05D27819B5
:1008F00010F8200C08B10643F1E7B00701D526F047
:100900000406C4F81CA00027C4F818A02A2D09D09A
:10091000284603F081FB38B304EB8708303DC8F864
:10092000185019E059F8041B204604EB8702916126
:10093000E1688847012F054618D1E069002820DAD0
:1009400026F020061DE0D8F8180000EB800005EB2B
:1009500040003038C8F818002046E168884705464E
:1009600003F05AFB0028EED1012F0AD02E2D08D11A
:100970002046E16888477F1C0546022F46F0200686
:10098000C4DBA069002803DA404246F00106A061FA
:10099000F00701D026F010066C2D0BD0682D09D081
:1009A0004C2D39D06A2D35D0742D35D07A2D33D0D9
:1009B00016E038E0E1682F4620468847B8420546F1
:1009C00009D16C2F26D04FF48060E16806432046A1
:1009D0008847054604E06C2F1AD04FF48070064318
:1009E0000DB3A5F14100192802D8203546F4006660
:1009F0004A462946204626604E46FFF705FC80B150
:100A000001280BD0F61D26F0070000F1080956E773
:100A10004020E4E78020D8E70020D6E706F104096B
:100A20004DE7284652E7206ABDE8F09F40380000B5
:100A300030B5B0F10A024FEA900E71F100034EEAB0
:100A4000817EB0EB0E0061EB91014FEA101E4EEA81
:100A5000017E10EB0E0041EB11114FEA102E4EEA11
:100A6000016E10EB0E0041EB11214FEA104E4EEAE1
:100A7000014E10EB0E0041EB1141401841F1000115
:100A80004FEAD00040EA41704FEAD10110EB8005F7
:100A90004FEA810444EA907444EB01046D1944EB7D
:100AA0000404521BA3414FF0000348BF0A3200D593
:100AB00030BD401C41F1000130BD2DE9F0470D462D
:100AC00099469246044600F124080168880604D538
:100AD000E06921F01001216000E00120A84201DD61
:100AE000471B00E00027A1697A1902EB0900081AE8
:100AF000A0612078C00602D42046FFF7E7FC00265C
:100B000008E0D4E901211AF806009047206A401C49
:100B1000761C20624E45F4DB2078C0060AD52046BC
:100B2000FFF7D4FC06E0D4E9012130209047206A89
:100B3000401C2062381EA7F10107F4DC07E0D4E96D
:100B4000012118F805009047206A401C2062281EE9
:100B5000A5F10105F3DC2046FFF7CEFC2078000666
:100B600002D50220BDE8F0870120FBE770472DE9A0
:100B7000FF4F0C461E464FF0FF378BB0D2E9000105
:100B8000DDF860800A908A46C1F30A5505B93D46F2
:100B9000002108464FF00000BAF1000F00F44000B9
:100BA00005DA00EB80004FF4400101EA50004FEA03
:100BB0009059B9F1010F00DDB9460A9850EA4A0090
:100BC0000ED044F61050A5F2FF3545432F14B8F16E
:100BD000000F1ED07542291E1EDDC9F100021CE067
:100BE000B8F1010F4FF0000001D0302103E0F243D3
:100BF00005E02154401CB042FBDB304600220021BE
:100C000021540B99C1F80880C1E900200FB0BDE85C
:100C1000F08FBD1B6D1CDEE74A4600DA694206A86C
:100C200000F0F0FB06AB93E8070003AB83E8070096
:100C300050460A9900F0ADFC8DE80700A0F5005081
:100C40001F3800900398002D0ADD42F21F014A462A
:100C50000844002303A90390684600F016FF09E04A
:100C6000A0F500504A461F38002303A903906846A8
:100C700000F020FF8DE807000004000C03D04FF0C7
:100C8000FF30410800E01046B8F1000F03D0002209
:100C9000009215461EE0751E05D4FFF7C9FE3032DE
:100CA00062556D1EF9D5B3460122084302D00022D9
:100CB0007F1C04E02078302801D100227F1E002A0A
:100CC000099784D01DE0112D07DAFFF7B1FE30320D
:100CD00062556D1C50EA0102F5D1084302D000981C
:100CE000C8B10EE00021681E05E0235C625C63541D
:100CF0002254401E491C8142F7DBAB46A81B401E14
:100D00000990002004F80B000B98099AC0F808809D
:100D1000C0E9002B7AE711264FF0000857E72DE9CC
:100D2000F04F88460446D21D22F0070191B0D1E968
:100D30000001CDE90A0103F03AF902460B98C00F11
:100D400001D02D2007E02068810701D52B2002E08B
:100D5000202101EAC000032A099001D0072A05DBFF
:100D600003464146204600F00DFB0BE1207880064B
:100D700001D5E06900E00620B8F1650F814606D094
:100D8000B8F1660F18D0B8F1670F70D131E00020CC
:100D9000B9F1110F009001DB112301E009F101030A
:100DA0000AAA01A90CA8FFF7E2FEDDE90C700026F3
:100DB00009F10105834647E001204B4600904FF0C2
:100DC00000470AAA01A90CA8FFF7D1FEDDE90DB082
:100DD0000C995D46002610B909F101000D18B9EB18
:100DE000050003D4C0F1FF3609F10105A5EB0900A8
:100DF0002BE0B9F1010F01DA4FF001090020B9F140
:100E0000110F0090484601DD112300E003460AAAB5
:100E100001A90CA8FFF7ABFEDDE90C704D460026DA
:100E20008346207800070AD4AB4500DA5D4601A866
:100E3000012D04DD411911F8011C302907D04F455F
:100E400002DA17F1040F04DA012082460FE06D1E6A
:100E5000EEE7002F02DCED1B3E4403E0781CA842C5
:100E600000DD7D1CB81B00F1010A4FF0004720781F
:100E7000000703D4AA4501DB4FF0FF3A0021B7F188
:100E8000004F0DF143088DF8431024D002202B238E
:100E9000002F01DA7F422D230A21021EA0F101005A
:100EA00000DC5FB197FBF1FC97FBF1F201FB1C7CCE
:100EB00017460CF1300C08F801CDEEE7A8F101005F
:100EC00003702188090501D5452100E06521A0F1C5
:100ED000010800F8011C09980FA9A1EB0807FF1DE4
:100EE00000B10120411901EBEA70A1693844081AE8
:100EF000401EA0612078C00602D42046FFF7E6FA23
:100F0000099828B1D4E901219047206A401C206249
:100F10002078C00622D52046FFF7D8FA1EE0002E22
:100F200004DBB34502DD01A8805D00E03020D4E998
:100F300001219047206A401C2062761CAAF1010022
:100F40005FEA000A0AD100F019FAC0680168405C43
:100F5000D4E901219047206A401C2062281EA5F197
:100F60000105DCDC07E0D4E9012118F8010B90470A
:100F7000206A401C2062381EA7F10107F3DC2046DE
:100F8000FFF7BAFA032011B041E600002DE9F04F57
:100F900004460D46D21D22F0070089B0D0E9009723
:100FA0004846394603F003F80246F80F01D02D23D6
:100FB00007E02068810701D52B2302E0202101EA08
:100FC000C0038DF820300BB1012000E00020032A7F
:100FD000824601D0072A04DB2946204600F0D2F9D8
:100FE0003FE12078800601D40D2500E0E569C7F3D4
:100FF0000A560D2D49DA00214FEA175B08464FF0DB
:101000000000002F00F4400007DA00EB80004FF4EE
:10101000400100EBD07001EA60008115012901DD7B
:101020004FF0FF3100224FEA850CBCF1180F06D3B8
:101030001346ACF118004FF08052C24003E04FF469
:10104000801323FA0CF30CF10C0CBCF1200F04D329
:10105000ACF1200C09FA0CF001E007FA0CF00029C1
:101060004FF0004801DD18B90FE00ED140450CD318
:1010700019EB02095F4121B9404502D19F4329EA9A
:101080000209BBEB175F00D0761C2088000502D553
:101090007B48784402E07A487844193808AA30231B
:1010A00002F80A30037C0AF10101002E0AF1020A5B
:1010B00053546A4602DC4FF0300101E04FF0310139
:1010C0004FF001088DF8001002D0A6F2FF3603E0C1
:1010D00059EA470100D06B4E002D02DC2178090748
:1010E00004D54FF002082E218DF80110C4460021CE
:1010F0000BE0C7F303433F01C35C491C6D1E02F8BC
:101100000830052908F1010801DA002DF1DC002181
:101110000CE000EB1973491C1B786D1E082902F8BE
:1011200008304FEA091908F1010801DA002DF0DC56
:1011300021688B0602D516E0A8F10108E04505DD1F
:1011400002EB080313F8013C302BF5D0B8F1000F87
:1011500009DD02EB080313F8013C2E2B03D109072C
:1011600001D4A8F10108002D05DD3E2102F8081088
:101170006D1E08F10108407C002E02F8080008F1FD
:10118000010804DA2D20764202F8080002E02B2044
:1011900002F808000A214FF47A70864208F101082B
:1011A0000BDB96FBF0F3303302F8083096FBF0F3DC
:1011B00008F1010800FB136601E0642E0CDB6420DB
:1011C00096FBF0F3303302F8083096FBF0F308F1A9
:1011D000010800FB136601E00A2E06DB96FBF1F026
:1011E000303002F8080008F1010896FBF1F001FB2D
:1011F0001060303002F80800A16908F1010808EB1E
:10120000050202EB0A00081AA0612078C00602D489
:101210002046FFF75BF9216A08AE01EB0A00206265
:1012200004E0D4E9012116F8010B9047BAF1010A54
:10123000F7D22078C00602D52046FFF747F96E4660
:1012400009E016F8010B3E280FD0D4E901219047A0
:10125000206A401C2062B8F10108F2D22046FFF754
:101260004BF909B00320BDE8F08F206A28442062C2
:1012700003E0D4E90121302090476D1EEBD3F8E75D
:101280008A30000002FCFFFF10B5436913B1AFF3D1
:10129000008001E0FFF753F9012010BD127800F142
:1012A00024010A7000224A700122EDE711684FF014
:1012B000FF32E9E710B5436913B1AFF3008001E0F5
:1012C000FFF7D4F9012010BD128800F124018284B7
:1012D0000022C2840122EDE711684FF0FF32E9E7F6
:1012E00070B516460C46054600F040F8036893F8C2
:1012F0000101012806D0FF2C0FD8185D68B101202C
:101300002C7070BDD3F807013246214603F2071353
:1013100003442846BDE8704018474FF0FF3070BDC9
:10132000754600F0EBF8AE4605006946534620F0DE
:101330000700854618B020B5FEF7E0FFBDE8204065
:101340004FF000064FF000074FF000084FF0000B81
:1013500021F00701AC46ACE8C009ACE8C009ACE834
:10136000C009ACE8C0098D467047000010B500F018
:1013700005F8001D10BD00BFFD2C0000004870479F
:10138000B40100202DE9F0411F4604460326016800
:10139000072A01F4006004DB08B116A505E016A5D4
:1013A00003E008B115A500E015A521F010002060AC
:1013B000A069C01EA0610FB1401EA0612046FFF7CA
:1013C00085F84FB1D4E9012138469047206A401C86
:1013D0002062C01C206206E0206AFAE7D4E90121FD
:1013E00015F8010B9047761EF8D22046FFF784F8D7
:1013F000BDE8F0814E414E006E616E00494E4600E0
:10140000696E66002DE9F047814616468AB0354878
:1014100078440DC88DE80D0032487844801C03AC38
:101420000DC884E80D0041F69B300844372190FB3D
:10143000F1F290FBF1F5A5F1800501FB12041B3CD4
:1014400002D56442012000E00020DFF898A0804629
:101450000027FA44AAF1BE0A0EE0E0070AD032469D
:10146000684607EB470101230AEB810100F022FBEC
:101470008DE8070064107F1C002CEED1194F7F44CB
:10148000AE3F19E0E80715D007EB04100DF1180A7C
:1014900090E80E008AE80E00C068F04201D1981969
:1014A00008903246012306A903A800F003FB03AB12
:1014B00083E807006D10641C002DE3D14FF0010399
:1014C00032466946B8F1000F03A802D000F0DDFAF9
:1014D00001E000F0EFFAC9E90001C9F808200AB0FC
:1014E000BDE8F0879C2D000010B50446AFF30080E6
:1014F0002046BDE81040FEF7ECBE000000487047F3
:10150000940100204FF0013C50F8042B51F8043BAB
:101510009A4221D1A2EB0C03934313EACC1317D1C7
:1015200050F8042B51F8043B9A4215D1A2EB0C035E
:10153000934313EACC130BD150F8042B51F8043B1E
:101540009A4209D1A2EB0C03934313EACC13DBD0EC
:101550004FF00000704700BFD01A01BAB1FA81F114
:1015600001F0180122FA01F0CB40C1F12001DBB2F9
:10157000C0B2C01A2CFA01F3D11A914311EAC31177
:10158000E6D1704701491820ABBEFEE726000200F5
:1015900070475FEA400C08BF91F0000F4FEA8C23C0
:1015A0004FEAC12243EA51514FEA1C5018BF00F5DF
:1015B000F0404FEA300018BF41F000415FEA6C5C38
:1015C00000F02980BCF1FF3F08BF40F08040704729
:1015D000130C06BF12044FF0100C4FF0000C130E4A
:1015E00004BF12020CF1080C130F04BF12010CF11E
:1015F000040C930F04BF92000CF1020CD30F04BF34
:1016000052000CF1010C11464FF00002A0F11F0036
:10161000A0EB0C00704711F0004F08BF704731F08D
:1016200000413FF4D5AF0B0C06BF09044FF0100C7E
:101630004FF0000C0B0E04BF09020CF1080C0B0F4D
:1016400004BF09010CF1040C8B0F04BF89000CF1DD
:10165000020CCB0F04BF49000CF1010CCCF12003AC
:10166000A0EB0C0022FA03F302FA0CF241EA0301A8
:1016700000F10100704720F07F4C80EA030023F066
:101680007F47ACEB070303F57C5300F0004003F108
:10169000FF032DE980494FEA154B09B44FEA144383
:1016A00025EA0B4E24EA03480FF2042606EB132723
:1016B00049083E785FEA320203FB0667C7F5000778
:1016C00007FB06F64FEA54374FEAD64606F1020604
:1016D00007FB066CCCF1005C4FEA1C472CEA074C78
:1016E00007FB06F40CFB06F504EB15464FEA9616CD
:1016F00034BF00204FF000404FEAD13706FB07FC13
:101700004FEA1C4C0CFB0BF7D21B03FB0CF761EBF5
:1017100007010CFB0EF7B0EB074072EB17420CFB16
:1017200008F734BFA2EB0742B2EB074261EB174167
:101730004FEA0C444FEA910706FB07FC4FEA1C4CAA
:101740000CFB0BF7B0EBC74072EB573203FB0CF707
:1017500034BFA2EBC742B2EBC74261EB57310CFB7F
:101760000EF7B0EBC70072EB57720CFB08F734BFF3
:10177000A2EBC702B2EBC70261EB5771039F4FEABE
:10178000816141EA921104EBCC044FEAD1374FEA70
:10179000826206FB07FC42EA90124FEA80604FEA41
:1017A0001C4C0CFB0BF7D21B03FB0CF761EB070186
:1017B0000CFB0EF7B0EB074072EB17420CFB08F77F
:1017C00034BFA2EB0742B2EB074261EB17414FEA8D
:1017D0008C554FEA910704EB9C2406FB07FC4FEA6B
:1017E0001C4C0CFB0BF7B0EBC74072EB573203FB02
:1017F0000CF734BFA2EBC742B2EBC74261EB5731E3
:101800000CFB0EF7B0EBC70072EB57720CFB08F73E
:1018100034BFA2EBC702B2EBC70261EB577115EB05
:101820004C254FEA816141EA92114FEA82624FEA08
:10183000D13742EA901206FB07FC44F100044FEA5C
:1018400080604FEA1C4C0CFB0BF7D21B03FB0CF720
:1018500061EB07010CFB0EF7B0EB074072EB174290
:101860000CFB08F734BFA2EB0742B2EB074261EB77
:10187000174115EB1C154FEA813141EA92414FEABD
:10188000823242EA90424FEA80304FEA0C7644F1CD
:10189000000448EA03434EEA0B484FF0000EB2EB57
:1018A000080C71EB030724BF624639464EEB0E0E5F
:1018B0004FF0000B0018524149414BEB0B0BB2EBC0
:1018C000080C71EB03077BF1000B24BF624639461D
:1018D0004EEB0E0E4FF0000B0018524149414BEBFE
:1018E0000B0BB2EB080C71EB03077BF1000B24BF71
:1018F000624639464EEB0E0E51EA020718BF46F01B
:10190000010616EB0E7655F1000254F1000103D5E5
:10191000BDE88901BDE80088BDE88901BDE800484F
:10192000B619524141EB0101A3F1010370478080D8
:101930007F7E7D7C7B7A7978777676757473727129
:1019400071706F6E6E6D6C6C6B6A6A6968686766E1
:1019500066656464636362616160605F5F5E5E5D73
:101960005D5C5C5B5B5A5A595958585757565655E7
:1019700055555454535352525251515050504F4F49
:101980004F4E4E4D4D4D4C4C4C4B4B4B4A4A4A4999
:1019900049494848484747474746464645454544DC
:1019A0004444444343434342424242414141002B69
:1019B0009C4630D477002BD01CB54FEA370703B4D0
:1019C0004FF010004FF01001BAF1000F06D0BCF13B
:1019D000000FDCBF40F0080040F008014FF00000AD
:1019E0000FBCBDE810400BF1010BBBF1010F08BFAC
:1019F0005FEA170722BF12F1010211F101014FF056
:101A0000004143F1000300F0004043EA000070474A
:101A1000F9D35708D0E746EA064613F1400F4FEADC
:101A200016461FDD13F1200FDFBF16430A460021C3
:101A300020335B42BED0C3F1200746EA064602FAD5
:101A400007F74FEA164646EA0706C3F1200722FACF
:101A500003F201FA07F721FA03F14FF0000342EA1B
:101A60000702A7E746EA020646EA06464FEA164696
:101A700046EA0106BCBF46EA0646360C4FF00003B4
:101A80004FF000024FF0000194E72DE9804C9A4698
:101A9000934670B491E8380007C831EA400C48BF5B
:101AA00034EA430C03D5FFF7E6FDFFF780FFF0BCF7
:101AB000BDE8008C2DE9804C9A46934670B491E8BD
:101AC000380007C810F0804F08BF13F0804F03D1D3
:101AD00000F005F8FFF76BFFF0BCBDE8008C20F0CC
:101AE0007F4780EA030023F07F4C07EB0C03A3F54C
:101AF0007C5300F00040A3F1FE0392F0000F00F0D1
:101B0000B38095F0000F00F077802DE901494FEA8E
:101B100011404FEA144621EA004800FB06FC24EA83
:101B2000064708FB06F607FB08F800FB07F718EB6B
:101B300006484CEB164C4FEA124B18EB07484FEA9D
:101B400015464CEB174022EA0B4E0BFB06FC25EA30
:101B500006470EFB06F607FB0EFE0BFB07F71EEB18
:101B6000064E4CEB164C4FF000061EEB074E4CEBAE
:101B7000174B18EB0B0840F1000018EB0E0B58EB5D
:101B8000000840F100008F1A4FF000013CBFC9432C
:101B9000661B14BFB5EB040C00213CBFC943F61B08
:101BA0004FEA17444EEA8E0E27EA04454FEA1C47D7
:101BB00004FB07622CEA074C05FB07F70CFB05F654
:101BC00004FB0CFC16EB074642EB174216EB0C46E7
:101BD00042EB1C421BEB060658EB0202414146EA6F
:101BE0009E0601D5BDE80189B619524141EB0101BC
:101BF000A3F10103BDE801894FEA14454FEA1147FB
:101C000024EA054621EA074C05FB07F406FB07F723
:101C10000CFB06F105FB0CFC11EB074144EB1744F0
:101C20004FEA124711EB0C4144EB1C4422EA074CEB
:101C300005FB07F206FB07F70CFB06F605FB0CFCA1
:101C400016EB074642EB174216EB0C4642EB1C45DF
:101C50006A1854F1000148BF7047B619524141EB70
:101C60000101A3F10103704795F0000F37D04FEA4F
:101C700011424FEA144721EA024624EA074C02FBCC
:101C800007F106FB07F70CFB06F402FB0CFC14EB58
:101C9000074441EB17414FEA154714EB0C4441EB65
:101CA0001C4125EA074C02FB07F506FB07F70CFB76
:101CB00006F602FB0CFC16EB074645EB174516EB48
:101CC0000C4645EB1C42121951F1000148BF704708
:101CD000B619524141EB0101A3F1010370474FEAEC
:101CE00014454FEA114724EA054621EA074C05FB53
:101CF00007F106FB07F70CFB06F24FF0000605FBA9
:101D00000CFC12EB074241EB174112EB0C4251EB7A
:101D10001C4148BF7047921841EB0101A3F1010338
:101D2000704700000FB400B59BB0642102A8FEF715
:101D3000A3FB1DA8019002A8019A1C99FEF768FB5D
:101D40004FF0FF33642202A9034801F051FE002046
:101D500001901BB05DF814FB6800002070B50025F1
:101D600001240026C8214448FEF764FBA31E01227B
:101D70004149424801F0CEFD044604B17AE03E48B4
:101D800006784FF0FF333246411C3C4801F0C2FD5B
:101D900004460CB100256DE0374840781038122811
:101DA00062D2DFE800F0090E13181D22272C3844F8
:101DB000616161616161505C2F4800F0C9F90125E2
:101DC00057E02D4800F0A4F9012552E02A4800F020
:101DD0007BF901254DE0284800F089FA012548E00B
:101DE000254800F0D5F9012543E0234800F042F9E9
:101DF00001253EE0204800F038FA012539E017219E
:101E00001FA0FFF78FFF2CA0FFF78CFF1A4800F0F0
:101E100030F901252DE0182133A0FFF783FF26A01C
:101E2000FFF780FF144800F01FFA012521E0192177
:101E300039A0FFF777FF20A0FFF774FF0E4800F0EE
:101E400085F9012515E0202142A0FFF76BFF1AA0BC
:101E5000FFF768FF084800F049FA012509E0064845
:101E600000F0D8F8012504E046A0FFF75BFF00254D
:101E700000BF00BF284670BDCC0000202400002019
:101E800043424C5F454E5F525F575F50524F54453F
:101E900043545F434D4428307825782920436F6DA3
:101EA0006D616E642069732052656365697665644F
:101EB00020200D0A00000000426F6F746C6F616497
:101EC0006572207374617274732070726F636573CE
:101ED00073696E672074686520636F6D6D616E64F1
:101EE0002020200D0A00000043424C5F4D454D5F0D
:101EF000524541445F434D4428307825782920439A
:101F00006F6D6D616E6420697320526563656976DB
:101F1000656420200D0A000043424C5F5245414455
:101F20005F534543544F525F5354415455535F439D
:101F30004D4428307825782920436F6D6D616E649B
:101F400020697320526563656976656420200D0AF7
:101F50000000000043424C5F4F54505F52454144E3
:101F60005F434D4428307825782920436F6D6D619B
:101F70006E6420697320526563656976656420200C
:101F80000D0A0000496E76616C696420436F6D6DC7
:101F9000616E6420436F6465205265636569766590
:101FA000642046726F6D2074686520486F737420DA
:101FB0002121200D0A0000002DE9F84305460E46B8
:101FC00017464FF00008C14600240020009000BFD3
:101FD00009E0285D0090012269460D4800F03BFCB5
:101FE0008146601CC4B2B442F3D3094800688068DB
:101FF00040F001000649096888604F4502D14FF062
:10200000010801E04FF000084046BDE8F8830000F9
:1020100000000020F8B505460026002700200090AB
:1020200000242878461CA81950F8047C311F3A4631
:102030002846FFF7C1FF012818D100F079F9AC78E4
:10204000022C01D0CC2C02D10020009009E00CB968
:10205000AA2402E0012C00D15524204600F0A3F967
:1020600000900121684600F077F901E000F082F964
:10207000F8BD7047F8B50446002500260020009002
:102080002078451C601950F8046C291F3246204600
:10209000FFF792FF012814D100F04AF9E178A07807
:1020A00001F089FD00909DF80000032804D1012172
:1020B000684600F051F906E00121684600F04CF94D
:1020C00001E000F057F9F8BDF8B5044600250026F8
:1020D000002000902078451C601950F8046C291FDE
:1020E00032462046FFF768FF01280CD107480068F8
:1020F000C0F30B000090022000F01AF9022168469C
:1021000000F02AF901E000F035F9F8BD002004E004
:1021100070B50446002500262078451C601950F84B
:10212000046C291F32462046FFF746FF012807D1DD
:102130000C2000F0FDF80C21034800F00DF901E03F
:1021400000F018F970BD0000180000207047000072
:10215000F8B504460DA00068009000250026207800
:10216000451C601950F8046C291F32462046FFF7C1
:1021700023FF012807D1042000F0DAF80421684683
:1021800000F0EAF801E000F0F5F8F8BD64010100A4
:102190002DE9F84304460025002700260020009082
:1021A00080462078451C601950F8047C291F3A4667
:1021B0002046FFF701FF012816D100F0B9F8D4F846
:1021C0000260304601F080FC00900121684600F07A
:1021D000C3F89DF80000012808D106F10108304637
:1021E00000F006F8C04701E000F0C4F8BDE8F8834D
:1021F0007CB50446194884420DD1006801900198CD
:1022000080F3088800BF00F027FF2046456800954E
:102210000098804721E0124884420DD10068019067
:10222000019880F3088800BF00F016FF204645683B
:1022300000950098804710E00A4884420DD100685C
:102240000190019880F3088800BF00F005FF204648
:10225000456800950098804700BF7CBD008000085D
:1022600000C000080000010870472DE9FC41044649
:10227000002500270026A846002001900090207825
:10228000451C601950F8047C291F3A462046FFF788
:1022900093FE012826D100F04BF8D4F8026094F8A0
:1022A0000680304601F010FC01909DF804000128E2
:1022B00013D142463146E01D00F096FA00909DF899
:1022C0000000012804D10121684600F045F80BE028
:1022D0000121684600F040F806E0012101A800F065
:1022E0003BF801E000F046F8BDE8FC817047F8B526
:1022F0000446002500260020009000272078451C79
:10230000601950F8046C291F32462046FFF754FE2E
:10231000012809D100F00CF800F03CF800900121F0
:10232000684600F019F801E000F024F8F8BD00005C
:1023300038B5044606A0006800908DF801404FF0C3
:10234000FF3302226946034801F052FB38BD00000A
:10235000CD0000002400002070B504460D46AAB24E
:102360004FF0FF332146024801F042FB70BD0000F0
:102370002400002008B5AB2000904FF0FF3301226D
:102380006946024801F034FB08BD0000240000202B
:1023900000BFFEE700B587B0684600F0F1FA049888
:1023A000C0B207B000BD70B588B005460124002654
:1023B00000F064FB044604B11BE002200190012000
:1023C0000490059501A800F0EDFA044624B100F050
:1023D0004BFB044600260CE000F038FB04460CB131
:1023E000002606E000F040FB04460CB1002600E0A9
:1023F0000126304608B070BD704772B600BFFEE7D8
:1024000010B5002201B909E0012901D10A0205E055
:10241000022901D10A0201E04FF440720E4B1B6801
:1024200023F440730C4C236023461B681343236042
:1024300023461B6823F0F803236023461B6802240D
:1024400044EAC0042343044C236023461B6843F43E
:102450008033236010BD0000103C02401C4800681F
:1024600000F40070B0B11A48006820F400701849F8
:10247000086000BF0846006840F400600860084635
:10248000006820F40060086000BF0846006840F45F
:10249000007008600E48006800F48060B0B10C481D
:1024A000006820F480600A49086000BF08460068A0
:1024B00040F4805008600846006820F480500860AE
:1024C00000BF0846006840F4806008607047000064
:1024D000003C02400A4A126822F44072084B1A601B
:1024E0001A46126842F004021A601A4612684FF443
:1024F000803343EA00231A43014B1A6070470000FF
:10250000103C024001460648007820F00C00044AC6
:1025100010701046007808431070002070470000CB
:10252000143C024070B504460E4600254CF2503073
:1025300000F028F905462DB903480088A1B20843E8
:1025400001490880284670BD163C024070B504461B
:102550000E4600254CF2503000F014F9054625B91E
:1025600003480088A04302490880284670BD000047
:10257000163C02400248007800F00C007047000052
:10258000143C0240AA2007490978CC2901D1CC206B
:1025900006E004490978AA2901D1AA2000E05520C3
:1025A00070470000153C02400248006800F0E0005F
:1025B00070470000143C024001480088704700004A
:1025C000163C024070B5044600254CF2503000F035
:1025D000D9F805460DB902480470284670BD0000C0
:1025E000153C02402DE9F04104460D4616464FF0D9
:1025F000FF0800274CF2503000F0C4F807464FB9EE
:102600000648007800F01F0845EA080030432043E0
:10261000024908703846BDE8F0810000143C0240D1
:10262000074A126822F44072054B1A601A46126873
:102630001A601A46126842F001021A60017070476F
:10264000103C024010B50D49096821F440710B4C53
:1026500021602146096841F44071216021460968E2
:1026600041F001012160026000BF00BF00BFBFF365
:102670006F8F00BF00BF00BF436010BD103C024021
:10268000084A126822F44072064B1A601A46126811
:1026900042F480721A601A46126842F001021A600F
:1026A00001807047103C0240084A126822F44072D0
:1026B000064B1A601A46126842F400721A601A46F3
:1026C000126842F001021A6001607047103C02403B
:1026D0002A48006800F0100040B12948C06940F065
:1026E00010002749C8611020244908602348006869
:1026F00000F0200040B12248C06940F008002049A5
:10270000C86120201D4908601C48006800F0400096
:1027100040B11B48C06940F004001949C86140201D
:10272000164908601548006800F0800040B1144860
:10273000C06940F002001249C86180200F4908605A
:102740000E48006800F4807048B10D48C06940F040
:1027500001000B49C8614FF48070084908600748C0
:10276000006800F0020040B10548C06940F0200058
:102770000349C86102200149086070470C3C0240CF
:10278000AC00002070B50446002500201449C86143
:1027900000F0D4FA054609E0601C38B124B100F01D
:1027A000CDFA401BA04201D9032070BD0D4800683E
:1027B00000F480300028EFD10A48006800F00100E2
:1027C00010B10120074908600648006800F4F9705C
:1027D00018B1FFF77DFF0120E7E70020E5E70000E3
:1027E000AC0000200C3C02402DE9F04706460F46A5
:1027F000904601244FF00009002500F0A1F904469D
:1028000004B115E0002510E016F805C079196246FC
:102810000023184600F048F9044614B14FF00009AF
:1028200005E04FF00109681C85B24545ECD300BFB7
:10283000B9F1010F0AD14CB900F0FEF8044614B109
:102840004FF0000904E04FF0010901E04FF00009EA
:102850004846BDE8F08770B503460C4600200225C7
:102860005D71002104E054F821501E683560491C58
:102870009142F8D31D68286801255D7170BD10B5BF
:1028800004460CB9012010BD607920B900202071E8
:10289000204600F005F8012060710020F3E70000F9
:1028A00008B50A4A016891420FD100BF002100918A
:1028B0000749096841F48051054A116011460968C9
:1028C00001F48051009100BF00BF08BD00300240FC
:1028D000303802402DE9F04104460E46012700251C
:1028E00000BF2548007E012802D10220BDE8F0810A
:1028F00001202149087600BF4CF25030FFF742FF1B
:102900000746002F31D1401E3060206801280FD1CA
:10291000207C6168FFF7DEFD4CF25030FFF732FF9C
:1029200007461648006820F00400144908601AE0C1
:10293000A56812E0217C2846FFF762FD4CF250307A
:10294000FFF720FF07460D48006820F0FA000B490A
:1029500008600FB1356005E06D1CD4E90210084431
:10296000A842E7D800BFFFF779FD00BF0020024969
:10297000087600BF3846B9E7AC000020103C0240A2
:1029800010B504460F202060FFF716FEA060FFF789
:10299000F9FD2061FFF708FE2076FFF7EBFD60618F
:1029A00010BD000070B50446012500BF2148007E1F
:1029B000012801D1022070BD01201E49087600BF08
:1029C000207800F0010068B16068012805D1D4E9E1
:1029D0000201FFF7BBFD054604E0D4E90201FFF761
:1029E000A1FD0546207800F00200022803D1207CDA
:1029F000FFF7E8FD0546207800F00400042809D11F
:102A0000237E03F0800203F0400103F02000FFF773
:102A1000E9FD0546207800F00800082803D1207D54
:102A2000FFF770FD054600BF00200249087600BF91
:102A30002846C0E7AC0000200348006840F0004092
:102A40000149086000207047103C024010B505485D
:102A5000007840F00200034908704CF25030FFF754
:102A600091FE10BD143C02400348006840F0010094
:102A70000149086000207047143C02400748006884
:102A800000F0010030B1064804490C3908600548DF
:102A9000086001E0012070470020FCE7143C024080
:102AA0003B2A19087F6E5D4C2DE9F04106460F4622
:102AB00014461D464FF0010800BF1F48007E012844
:102AC00002D10220BDE8F08101201B49087600BF39
:102AD0004CF25030FFF756FE8046B8F1000F23D17C
:102AE00026B9E1B23846FFF79BFD12E0012E04D172
:102AF000A1B23846FFF7C4FD0BE0022E04D12146F7
:102B00003846FFF7D1FD04E022462B463846FFF752
:102B100099FD4CF25030FFF735FE804607480068BB
:102B200020F001000549086000BF00200249087636
:102B300000BF4046C6E70000AC000020103C024049
:102B400000200949096801F0004159B10749064AC6
:102B50000C3A1160064911600349096801F000410F
:102B600001B1012070470000103C0240230167457D
:102B7000AB89EFCDF8B502460B46002500240020B6
:102B80000021C7E0012606FA01F51E6806EA0504E1
:102B9000AC4274D11E7906F00306012E04D01E79D2
:102BA00006F00306022E13D190684F000326BE40A4
:102BB000B0434F00DE68BE4030439060506801264D
:102BC0008E40B0431E79C6F300168E4030435060ED
:102BD0001E7906F00306032E09D0D0684F000326A5
:102BE000BE40B0434F009E68BE403043D0601E7967
:102BF00006F00306022E13D1CF0802F1200656F884
:102C000027004E07F70E0F26BE40B0434F07FF0EBA
:102C10001E69BE403043CF0802F1200646F8270067
:102C200010684F000326BE40B0431E7906F003062D
:102C30004F00BE40304310605E6806F44036002E00
:102C400067D000BF00260096344E366846F48046B2
:102C5000324F3E603E46366806F48046009600BF1E
:102C600000BF2F4E8F0856F827008E07370F0F260C
:102C7000BE40B0432B4EB24202D1002615E048E0E0
:102C8000294EB24201D101260FE0284EB24201D1B5
:102C900002260AE0264EB24201D1032605E0254E67
:102CA000B24201D1042600E007268F073F0FBE4045
:102CB00030431B4E8F0846F827001F4E3068A04354
:102CC0005E6806F4801606B120431B4E3060361D48
:102CD0003068A0435E6806F4001606B12043164E25
:102CE000361D3060144E361F3068A0435E6806F40F
:102CF000003606B12043104E361F3060361F306854
:102D0000A0435E6806F4803606B120430A4E083EB2
:102D10003060491C1029FFF435AFF8BD443802403B
:102D20000838014000000240000402400008024050
:102D3000000C024000100240083C014001480068BD
:102D40007047000008000020034800680349097824
:102D50000844014908607047080000201000002066
:102D600010B50D48006840F400700B490860084633
:102D7000006840F4806008600846006840F4807095
:102D80000860032000F092F80F2000F007F800F030
:102D90002BF8002010BD0000003C024070B5044636
:102DA0000E4800784FF47A71B1FBF0F00C490968D5
:102DB000B1FBF0F5284600F0DBFC08B1012070BD46
:102DC000102C07D200222146501E00F031F8054891
:102DD000046001E00120F2E70020F0E7100000208D
:102DE000140000200C00002008B500BF0020009057
:102DF0000E48006840F480400C49086008460068AE
:102E000000F48040009000BF00BF00BF0020009091
:102E1000081F006840F08050091F086008460068DD
:102E200000F08050009000BF00BF08BD4438024051
:102E30002DE9F05F80460D461646002701F0D0F8D8
:102E4000074639462A46334601F00700C0F1070A13
:102E5000BAF1040F02D94FF0040A01E0C0F1070AE9
:102E6000D14600F1040ABAF1070F02D24FF0000A6E
:102E700001E0A0F1030AD4464FF0010A0AFA09FA68
:102E8000AAF1010A0AEA020A0AFA0CFA4FF0010B47
:102E90000BFA0CFBABF1010B0BEA030B4AEA0B0438
:102EA0002146404601F0A4F8BDE8F09F00BF00F0C5
:102EB0000702064B19684FF6FF031940044B0B43FA
:102EC00043EA0221014B196000BF70470CED00E09E
:102ED0000000FA0570B504460D460CB9012070BD1E
:102EE0005848006800F00700A84209D255490D7003
:102EF0000846006800F00700A84201D00120EEE774
:102F0000207800F0020002281DD1207800F0040093
:102F1000042805D14C48006840F4E0504A49086054
:102F2000207800F00800082805D14748006840F4E0
:102F30006040454908604448006820F0F000A168FE
:102F4000084341490860207800F00100A8B3606898
:102F5000012807D13C4808380068C0F34040B8B9A0
:102F60000120BCE76068022802D06068032807D10E
:102F7000354808380068C0F3406048B90120AEE722
:102F8000314808380068C0F3400008B90120A6E7BE
:102F90002D48006820F00300616808432A49086052
:102FA000FFF7CCFE064609E0FFF7C8FE801B41F2A2
:102FB0008831884202D9032091E707E0224800685F
:102FC00000F00C006168B0EB810FEDD11D48006886
:102FD00000F00700A84209D91A490D700846006898
:102FE00000F00700A84201D0012078E7207800F027
:102FF0000400042807D11448006820F4E050E16878
:10300000084311490860207800F00800082808D11A
:103010000D48006820F46040216940EAC1000A4977
:10302000086000F0FFF808490968C1F30311074A76
:10303000515CC8400649086006480068FFF7AEFECC
:1030400000204CE7003C024008380240B240000833
:10305000140000200C00002010B5FFF76FFE04469E
:103060005748006840F001005549086006E0FFF746
:1030700065FE001B022801D9032010BD50480068DE
:1030800000F002000028F2D04D48006840F08000B7
:103090004B490860FFF752FE0446002048490831BA
:1030A000086008E0FFF74AFE001B41F288318842C1
:1030B00001D90320E1E742480830006800F00C0025
:1030C0000028EFD1FFF73AFE04463D48006820F49F
:1030D00050203B49086006E0FFF730FE001B6428E3
:1030E00001D90320C9E73648006800F40030002801
:1030F000F2D1FFF723FE04463148006820F08070CB
:103100002F49086006E0FFF719FE001B022801D9CD
:103110000320B2E72A48006800F000700028F2D1CE
:10312000FFF70CFE04462648006820F08060244922
:10313000086006E0FFF702FE001B022801D9032009
:103140009BE71F48006800F000600028F2D11D488E
:103150001B49091D08601C4819498431086018483A
:103160000C30006820F4F85015490C31086008460E
:10317000006820F4005008600846006840F41F0012
:1031800008600846006840F4001008600C4874307D
:10319000006820F001000A497431086008460068A0
:1031A00040F08070086009480949086009480068D3
:1031B000FFF7F4FD08B101205FE700205DE70000A4
:1031C0000038024010300004003000200024F400D9
:1031D000140000200C000020014800687047000027
:1031E0001400002000B5FFF7F7FF04490968C1F398
:1031F0008221034A515CC84000BD000008380240EB
:10320000C240000800B5FFF7E7FF04490968C1F3B1
:103210004231034A515CC84000BD000008380240FA
:10322000C24000082DE9F047002400250026A146F1
:103230002548006800F00C0020B1042805D00828BB
:103240003AD105E0DFF8849039E0DFF8849036E089
:103250001D48001F006800F03F041B48001F006865
:1032600000F4800078B11A481749091F0968C1F3B2
:103270008811A0FB01700146224600233846FDF765
:103280004FF805460EE011480F49091F0968C1F3C0
:103290008811A0FB01700146224600233846FDF745
:1032A0003FF805460848001F0068C0F30140401C75
:1032B0004600B5FBF6F902E0DFF8109000BF00BF52
:1032C0004846BDE8F0870000083802400024F400BA
:1032D00040787D01F8B504460CB90120F8BD20788E
:1032E00000F00100002874D0F948006800F00C00DC
:1032F00004280DD0F648006800F00C00082813D10F
:10330000F348001F006800F48000B0F5800F0BD177
:10331000EF4808380068C0F34040002859D0606882
:10332000002856D10120D9E700BF6068B0F5803F82
:1033300008D1E7480838006840F48030E44908398B
:1033400008601EE06068B0F5A02F0DD1E048083895
:10335000006840F48020DE490839086008460068AB
:1033600040F4803008600CE0D9480838006820F448
:103370008030D749083908600846006820F480206A
:10338000086000BF606890B1FFF7D8FC054606E012
:10339000FFF7D4FC401B642801D903209EE7CC48EA
:1033A00008380068C0F340400028F1D011E0FFF772
:1033B000C5FC054606E0FFF7C1FC401B642801D9A7
:1033C00003208BE7C24808380068C0F3404000285B
:1033D000F1D1207800F0020002285FD1BC480068DB
:1033E00000F00C0058B1BA48006800F00C00082842
:1033F0001CD1B748001F006800F48000B0B9B44881
:1034000008380068C0F3400020B1E068012801D00E
:10341000012063E7AE480838006820F0F800216911
:1034200040EAC100AA490839086037E0E06800B303
:103430000120A8490860FFF781FC054606E0FFF778
:103440007DFC401B022801D9032047E7A04808382B
:103450000068C0F340000028F1D09D48083800689B
:1034600020F0F800216940EAC10099490839086054
:1034700014E0002097490860FFF760FC054606E06D
:10348000FFF75CFC401B022801D9032026E7904887
:1034900008380068C0F340000028F1D1207800F01F
:1034A000080008282CD16069A8B101208A49086069
:1034B000FFF744FC054606E0FFF740FC401B0228EE
:1034C00001D903200AE782486C300068C0F340004D
:1034D0000028F1D014E000207F490860FFF72EFC9F
:1034E000054606E0FFF72AFC401B022801D903200D
:1034F000F4E677486C300068C0F340000028F1D152
:10350000207800F00400042870D10027704838307B
:10351000006800F0805090B900BF002000906C4817
:103520003830006840F080506949383108600846FA
:10353000006800F08050009000BF00BF012767487E
:10354000006800F48070B0B96448006840F480708E
:1035500062490860FFF7F2FB054606E0FFF7EEFB65
:10356000401B022801D90320B8E65C48006800F43B
:1035700080700028F2D000BFA068012808D154480C
:103580006830006840F001005149683108601DE072
:10359000A06805280DD14E486830006840F004004E
:1035A0004B49683108600846006840F00100086037
:1035B0000CE047486830006820F001004449683159
:1035C00008600846006820F00400086000BFA0689A
:1035D000A8B1FFF7B3FB054609E0FFF7AFFB401BBF
:1035E00041F28831884202D9032077E626E0384844
:1035F00068300068C0F340000028EED013E0FFF709
:103600009DFB054608E0FFF799FB401B41F288311E
:10361000884201D9032061E62D4868300068C0F374
:1036200040000028EFD1012F07D129483830006829
:1036300020F0805026493831086000BFA06900287A
:1036400045D02348006800F00C0008285DD0A06930
:10365000022845D100201F490866FFF76FFB054689
:1036600006E0FFF76BFB401B022801D9032035E67B
:10367000174808380068C0F340600028F1D1D4E949
:1036800007010843616A40EA81110122A06AC2EB86
:10369000500041EA00412C20005D41EA00600C49E5
:1036A000091F086001200B490866FFF747FB054624
:1036B00006E0FFF743FB401B022801D903200DE67B
:1036C000034808380068C0F340600028F1D049E0A2
:1036D0000838024000004742800E47420070004018
:1036E000002021490866FFF729FB054606E0FFF7A1
:1036F00025FB401B022801D90320EFE51B48006889
:10370000C0F340600028F2D12CE0A069012800D16C
:10371000E4E51648001D0668A069012820D006F4DB
:103720008001E06981421BD106F03F01206A81429D
:1037300016D147F6C0703040616AB0EB811F0FD1DF
:1037400006F440310122A06AC2EB5000B1EB004FF9
:1037500006D106F070612C20005DB1EB006F01D046
:103760000120BBE50020B9E50000474200380240D7
:1037700070B504462546681EB0F1807F01D3012054
:103780000FE0681E4FF0E02148610F214FF0FF303D
:1037900000F02EFC00204FF0E02188610720086136
:1037A000002070BD10B504460CB9012010BDA06901
:1037B00000B100E000BF94F83D0028B9002084F873
:1037C0003C00204600F028F8242084F83D002068C2
:1037D000C06820F400502168C860204600F086FAD6
:1037E0002068006920F490402168086120684069E1
:1037F00020F02A00216848612068C06840F4005029
:103800002168C86000202064202084F83D0084F8EE
:103810003E000020CAE7000010B586B0044614211F
:1038200001A8FCF729FE37492068884231D100BF42
:10383000002000903448006840F0100032490860D1
:103840000846006800F01000009000BF00BF00BFF5
:10385000002000902C481438006840F001002A49EC
:10386000143908600846006800F00100009000BFAD
:1038700000BF4FF4C060019002200290002003902E
:10388000032004900720059001A92048FFF772F952
:1038900035E01F492068884231D100BF00200090E8
:1038A0001948001F006840F400301749091F0860DC
:1038B0000846006800F40030009000BF00BF00BF61
:1038C0000020009010481438006840F001000E49B4
:1038D000143908600846006800F00100009000BF3D
:1038E00000BF0C20019002200290002003900320D2
:1038F00004900720059001A90448FFF73BF906B0A2
:1039000010BD000000100140443802400000024099
:10391000004400402DE9F84F04460E4617469946EC
:103920004FF0000A94F83E0020285FD106B117B985
:103930000120BDE8F88F00BF94F83C00012801D1B8
:103940000220F6E7012084F83C0000BF002020643C
:10395000222084F83E0000202063FFF7EFF9824622
:10396000A785E785A068B0F5805F04D1206910B90C
:103970000025B04602E035464FF0000800BF0020A9
:1039800084F83C0000BF29E0534600222021204655
:10399000CDF8009000F0C0FA08B10320C9E745B99E
:1039A00020684068C0F30800A8F8000008F1020889
:1039B00011E0A068B0F5805F03D0A06828B9206945
:1039C00018B920684068287004E02068406800F05A
:1039D0007F0028706D1CE08D401EE085E08D002882
:1039E000D2D1202084F83E000020A2E70220A0E7E8
:1039F0002DE9F84F04460E46174699464FF0000A47
:103A000094F83D0020285AD106B117B90120BDE82D
:103A1000F88F00BF94F83C00012801D10220F6E79E
:103A2000012084F83C0000BF00202064212084F89D
:103A30003D00FFF783F98246A784E784A068B0F5CC
:103A4000805F04D1206910B90025B04602E03546F8
:103A50004FF0000800BF002084F83C0000BF1BE0CE
:103A60005346002280212046CDF8009000F054FA01
:103A700008B10320CBE745B9B8F80000C0F308004F
:103A80002168486008F1020803E02878216848604E
:103A90006D1CE08C401EE084E08C0028E0D1534691
:103AA000002240212046CDF8009000F035FA08B100
:103AB0000320ACE7202084F83D000020A7E7022087
:103AC000A5E700BFFEE7000001460020B1F1006F4E
:103AD00002D3064A914205D9B1F1005F04D3044AEA
:103AE000914201D8012000E0002070470000040846
:103AF0000000012010B50548054908600846FEF79A
:103B0000BEFE08B1FEF779FC10BD00000030024097
:103B10000000002008B500BF0020009006480068A3
:103B200040F00100044908600846006800F0010008
:103B3000009000BF00BF08BD3038024010B50B48F0
:103B40000B4908604FF4E13048600021084881606B
:103B5000C16001610C21416100218161C161FFF7F8
:103B600021FE08B1FEF749FC10BD00000010014025
:103B70002400002010B50B480B4908604FF4E130D9
:103B80004860002108488160C16001610C214161E9
:103B900000218161C161FFF705FE08B1FEF72DFC30
:103BA00010BD0000004400406800002000BFFEE798
:103BB00000BFFEE770472DE9F04186B004460D4690
:103BC000002700264FF0010800200090062D00DDA0
:103BD0002AE0052C01DDFF2C25D1FF2C02D101208C
:103BE000019009E0C4F10600C6B2B54200DD3546D9
:103BF000002001900394049501200290022005907A
:103C0000FEF79EFF8046694601A8FEF763FE8046E8
:103C10000098B0F1FF3F01D1032700E00227FEF733
:103C20000BFF804600E00227384606B0BDE8F08171
:103C3000704710B5FFF788F810BD000000B593B0CD
:103C4000302107A8FCF718FC142102A8FCF714FC8B
:103C500000BF002001901E48006840F080501C49C1
:103C600008600846006800F08050019000BF00BF67
:103C700000BF002001901748006820F4404040F445
:103C80000040144908600846006800F44040019074
:103C900000BF00BF0220079001200A9010200B9067
:103CA00000200D9007A8FFF715FB08B1FEF7A5FB54
:103CB0000F200290002003900490059006900021B0
:103CC00002A8FFF707F908B1FEF797FB13B000BD94
:103CD00040380240007000400348006840F4700023
:103CE000014908607047000088ED00E02DE9F84FB9
:103CF00004462068006920F44050E16808432168C8
:103D000008612169A068084361690843E1690843C3
:103D100000902068C06849F20C618843009908430C
:103D20002168C8602068406920F44070A169084398
:103D30002168486176492068884203D07549206827
:103D4000884203D1FFF75EFA814602E0FFF74AFAA4
:103D50008146E069B0F5004F6CD102206168A0FB9C
:103D6000015003461920A9FB007001462A46384637
:103D7000FCF7D6FA6421B0FBF1F04FEA001A0220FA
:103D80006168A0FB01510B461920A9FB00712A466E
:103D90003846FCF7C5FA834602206168A0FB015053
:103DA00003461920A9FB00712A463846FCF7B8FAE9
:103DB0006421B0FBF1F000EBC00101EB0010ABEBB4
:103DC0008000322101EBC0006421B0FBF1F000F073
:103DD000F8000AEB400A02206168A0FB015003468C
:103DE0001920A9FB007001462A463846FCF798FACC
:103DF000834602206168A0FB015003461920A9FBFD
:103E000000712A463846FCF78BFA6421B0FBF1F0CA
:103E100000EBC00101EB0010ABEB8000322101EBA5
:103E2000C0006421B0FBF1F000F0070050442168AD
:103E300088606AE004206168A0FB015003461920F5
:103E4000A9FB007001462A463846FCF769FA82460B
:103E500004206168A0FB015003461920A9FB0070F3
:103E600001462A463846FCF75BFA6421B0FBF1F0C4
:103E700000EBC00101EB0010AAEB8000322101EB46
:103E800000106421B0FBF1F000F0F00A042061683A
:103E9000A0FB017003461920A9FB00513A462846B1
:103EA000FCF73EFA6421B0FBF1F00AEB001A0420A3
:103EB0006168A0FB01510B461920A9FB00712A463D
:103EC0003846FCF72DFA834604206168A0FB0150B8
:103ED00003461920A9FB007001462A463846FCF724
:103EE0001FFA6421B0FBF1F000EBC00101EB001000
:103EF000ABEB8000322101EB00106421B0FBF1F04C
:103F000000F00F00504421688860BDE8F88F000081
:103F100000100140001401402DE9F04104460D4617
:103F200017469846069E34E0701C88B32EB1FEF703
:103F300005FFA0EB0800B0422BD900BF00BF2168ED
:103F40000C3151E8001F21F4D07021680C3141E898
:103F50000002002AF3D100BF00BF00BF2168143166
:103F600051E8001F21F001002168143141E80002EE
:103F7000002AF3D100BF202084F83D0084F83E00E1
:103F800000BF002084F83C0000BF0320BDE8F081A2
:103F9000FFE7206800682840A84201D1012000E026
:103FA0000020B842C0D00020F0E700BFFEE703B415
:103FB00001984100009850EAC12018BF04204A0D22
:103FC00018BF40F0010040F2FF72B2EB515F08BF32
:103FD00040F00200012808BF052002B07047000031
:103FE00002480068C0F30220704700000CED00E0BA
:103FF00010B5002804DB0A07130E054A135406E027
:104000000A07140E034A00F00F031B1FD45410BDFF
:1040100000E400E018ED00E030380A2801D2012069
:10402000704700207047FEF79BFEFFF707FEFFF783
:1040300071FDFFF75FFDFFF781FDFFF79BFD00BFFF
:1040400001E0FDF78BFEFCE710B500290AD00878E7
:10405000002807D005487844FDF754FA002801D01D
:10406000002010BD0248784410BD000092010000FD
:104070008A01000010B500290AD00878002807D06E
:1040800005487844FDF73EFA002801D0002010BD15
:104090000248784410BD0000820100007A0100004F
:1040A0004FF04070E1EE100A7047FCF738BEFCF7A5
:1040B0006DBF0000000000000000010203040607BD
:1040C00008090000000001020304000000000000D5
:1040D0000000000030313233343536373839414250
:1040E000434445464030580030313233343536375A
:1040F0003839616263646566403078000400000806
:104100000000000000000002000100001030313209
:1041100033343536373839616263646566787000E8
:1041200030313233343536373839414243444546ED
:104130005850000002400000000000A000000000F5
:1041400005400000000000C8000000000C40000016
:104150000000409C00000000194000000020BCBE90
:104160000000000034400000BFC91B8E00000004A6
:10417000B5400000504BCFD06607E2CF01000000F1
:104180006C4100003E8251AADFEEA734010000001E
:10419000D9420000DCB5A0E23A301F97FFFFFFFFD5
:1041A000B4450000FD25A0C8E9A3C14FFFFFFFFFF4
:1041B000FF3F00000000008000000000FF3F000003
:1041C00000000080000000001443000800000020F0
:1041D00024000000D001000838430008240000201B
:1041E000DCFF0000EC0100081C00000043000000A0
:1041F000F8FFFFFF0C0000000E0000000F000000A1
:104200002E0000001001000043000000F8FFFFFF37
:1042100000404040404040404040414141414140D9
:10422000404040404040404040404040404040408E
:10423000400502020202020202020202020202021D
:104240000220202020202020202020020202020222
:10425000020290909090909010101010101010107A
:104260001010101010101010101010100202020286
:1042700002028888888888880808080808080808CA
:1042800008080808080808080808080802020202C6
:1042900040000000000000000000000000000000DE
:1042A000000000000000000000000000000000000E
:1042B00000000000000000000000000000000000FE
:1042C00000000000000000000000000000000000EE
:1042D00000000000000000000000000000000000DE
:1042E00000000000000000000000000000000000CE
:1042F00000000000000000000000000000000000BE
:1043000000000000000000000000000000000000AD
:10431000000000000000000000000000000000009D
:1043200010000000010000000024F400101112131E
:084330001415161718192021BD
:040000050800019559
:00000001FF
