:020000040800F2
:10800000E80600203582000817910008018E00085C
:108010001591000891840008BD9B00080000000035
:108020000000000000000000000000007191000846
:1080300005860008000000001991000873910008EF
:108040004F8200084F8200084F8200084F820008CC
:108050004F8200084F82000809860008BD8600088C
:10806000DD860008FD8600081D8700084F82000895
:108070004F8200084F8200084F8200084F8200089C
:108080004F8200084F8200084F8200080000000065
:108090000000000000000000000000003D87000814
:1080A0004F8200084F8200084F8200081592000896
:1080B0004992000885920008C59200084F82000886
:1080C0004F8200084F8200084F8200084F8200084C
:1080D0004F8200084F8200084F8200080000000015
:1080E000298600084F8200084F8200080000000027
:1080F0000000000000000000000000004F820008A7
:10810000000000004F820008059300084F8200081D
:10811000000000000000000000000000000000005F
:108120004F8200084F8200084F8200084F820008EB
:108130004F82000800000000000000000000000066
:108140000000000000000000000000004F82000856
:108150004F8200084F8200084F8200084F820008BB
:108160004F8200084F82000800000000000000005D
:1081700000000000000000000000000000000000FF
:10818000000000004F820008000000000000000016
:108190004F82000800F002F800F03CF80AA090E8D6
:1081A000000C82448344AAF10107DA4501D100F0B2
:1081B00031F8AFF2090EBAE80F0013F0010F18BF43
:1081C000FB1A43F001031847341B0000541B000046
:1081D000103A24BF78C878C1FAD8520724BF30C8F3
:1081E00030C144BF04680C607047000000230024C5
:1081F00000250026103A28BF78C1FBD8520728BFB7
:1082000030C148BF0B6070471FB501F069FD1FBD4D
:1082100010B510BD00F0CFF81146FFF7F5FF01F0E3
:1082200019FD00F0EDF803B4FFF7F2FF03BC00F016
:10823000F5F800000948804709480047FEE7FEE7D7
:10824000FEE7FEE7FEE7FEE7FEE7FEE7FEE7FEE706
:1082500004480549054A064B70470000F99100089B
:1082600095810008E8000020E8060020E8020020D0
:10827000E802002053EA020C00F069802DE9F04B7F
:108280004FF00006002B1FBFB3FA83F503FA05F485
:1082900024FA05F65E4012BF1643B2FA82F502FADE
:1082A00005F4C5F120051EBF22FA05FC44EA0C04C2
:1082B000203556EA044C4FEA144418BF641C4FF0B2
:1082C00000084FF00009904271EB030C39D30029EC
:1082D00019BFB1FA81F701FA07F6B0FA80F700FA90
:1082E00007F6C7F120071EBF20FA07FC46EA0C0676
:1082F0002037B6FBF4FCA7EB0507103F07F01F0B78
:10830000CBF120060CFA0BFB2CFA06F644BFB34661
:108310000026202FA4BF5E464FF0000B5BEA060C40
:1083200008BF4FF0010B19EB0B09ABFB027C48EBCC
:108330000608C01B06FB02CC0BFB03CC71EB0C0147
:10834000C1E70B46024641464846BDE8F08B13B5EF
:108350004FF000004FF00001AFF30080BDE81C407B
:1083600070474FF0000200B51346944696462039F8
:1083700022BFA0E80C50A0E80C50B1F12001BFF4DE
:10838000F7AF090728BFA0E80C5048BF0CC05DF844
:1083900004EB890028BF40F8042B08BF704748BF92
:1083A00020F8022B11F0804F18BF00F8012B704706
:1083B000704770477047754600F02CF8AE460500D0
:1083C0006946534620F00700854618B020B5FFF7F0
:1083D0003FFFBDE820404FF000064FF000074FF090
:1083E00000084FF0000B21F00701AC46ACE8C009D3
:1083F000ACE8C009ACE8C009ACE8C0098D467047DC
:1084000010B50446AFF300802046BDE81040FFF7EA
:108410000ABF00000048704784000020014918206E
:10842000ABBEFEE726000200704710B504460022EE
:108430000146104600F0A2F821460022BDE8104097
:10844000012000F09BB810B50446002201461046FA
:1084500000F094F821460122BDE81040104600F0DB
:108460008DB810B5044601460122002000F086F8C0
:1084700021460022BDE81040012000F07FB810B571
:10848000012000F0B3F8BDE81040002000F0AEB8C5
:10849000FEE70000F8B505465FF0000605EBC604F0
:1084A0000222E178A07800F073FD15F8360030B1B3
:1084B000012808D0022806D0032809D103E0E1787A
:1084C000A078012202E0E178A078022200F0EEFC20
:1084D00061792079012200F05BFD00236179207928
:1084E0001A4600F079FD61792079002200F0AEFD96
:1084F000E179A079012200F04BFD0023E179A07918
:108500001A4600F069FDE179A079002200F09EFD95
:10851000761CF6B2022EC1D3174801F057F9012498
:108520000094697828780023062200F00BFF00945D
:10853000697A287A0023062200F004FF0F21002028
:1085400001F07AFA44F61F61002001F0DDF9697844
:108550002878002201F0F0F9697A287A002201F0E7
:10856000EBF90121002001F07FFABDE8F84002217B
:10857000002001F079BA00002000002010B5144658
:10858000A8B1012831D10A460221002001F02EFABB
:1085900024B3012C29D100220621104600F056FDFB
:1085A00001220721BDE81040002000F04FBD0A461F
:1085B0000121002001F01AFA4CB1012C15D1002242
:1085C0000421104600F042FD01220521EAE70122C4
:1085D0000421002000F03AFD0022F6E701220621E6
:1085E000002000F033FD0022DBE710BD30B1012890
:1085F00007D101220221002001F0F8B90122114621
:10860000F9E7704770470000054810B5006800B1F1
:1086100080470448016841F00101016010BD00007D
:1086200044000020143C014010B5224C2068410554
:10863000214807D5806A00280FD08047206840F481
:10864000806009E02168090508D5C06A002804D0C7
:108650008047206840F40060206010BD2168C90494
:1086600007D5006B0028F8D08047206840F4805080
:10867000F2E72168890407D5406B0028EDD08047D8
:10868000206840F40050E7E72168490407D5806B73
:108690000028E2D08047206840F48040DCE7216871
:1086A0000904DAD5C06B0028D7D08047206840F491
:1086B0000040D1E7143C014044000020054810B5BB
:1086C000406800B180470448016841F00201016040
:1086D00010BD000044000020143C0140054810B5C6
:1086E000806800B180470448016841F004010160DE
:1086F00010BD000044000020143C0140054810B5A6
:10870000C06800B180470448016841F00801016079
:1087100010BD000044000020143C0140054810B585
:10872000006900B180470448016841F01001016010
:1087300010BD000044000020143C014010B51A4C4C
:1087400020688106194801D540691AE02168490668
:1087500008D58069002804D08047206840F0400098
:10876000206010BD2168090607D5C0690028F8D02F
:108770008047206840F08000F2E72168C90507D5EE
:10878000006A0028EDD08047206840F02000E7E72D
:1087900021688905E5D5406A0028E2D08047206835
:1087A00040F40070DCE70000143C0140440000206D
:1087B000014880687047000000000020024881687E
:1087C0000278114481607047000000200B4810B50A
:1087D000016841F400710160016841F48061016049
:1087E000016841F480710160032000F061F80F20FE
:1087F00000F006F800F024F8002010BD003C024014
:1088000070B50D4D04464FF47A712878B1FBF0F045
:108810000A490968B1FBF0F000F0DEFA48B9102C03
:1088200007D200222146501E00F022F800206C6082
:1088300070BD012070BD0000000000200C00002071
:108840000A4808B5016841F480410160006800F4FD
:10885000804000900548001F016841F08051016090
:10886000006800F08050009008BD000044380240CD
:10887000F0B40E4B1B680C46C3F30223C3F107058B
:10888000042D00D90425191D072901D2002300E079
:10889000DB1E012606FA05F1491E214099409E4043
:1088A000761E16403143F0BC01F089B90CED00E0B2
:1088B000064900F0070208684FF6FF03184040EA37
:1088C0000220034A10430860704700000CED00E0EE
:1088D0000000FA052DE9F0470E46050065D0DFF8E7
:1088E0001481D8F80000F7B200F00700B04207D2B8
:1088F00088F80070D8F8000000F00700B04254D1AA
:1089000028683D4C810712D5400703D5206840F404
:10891000E05020602878000703D5206840F46040CC
:1089200020602068A96820F0F000084320602878C3
:10893000C0072DD0304968680839012812D00228B4
:1089400013D0032811D00968890700292DDA21687E
:1089500021F0030101432160FFF72AFF814641F224
:10896000883A0EE009688903EFE709688901ECE7B6
:10897000FFF71EFFA0EB0901514502D90320BDE816
:10898000F0872068696800F00C00B0EB810FEFD130
:10899000D8F80010404601F00701B14207D907702E
:1089A000006800F00700B04201D00120E7E7287816
:1089B000400705D52068E96820F4E05008432060AE
:1089C0002878000706D52068296920F4604040EA2D
:1089D000C100206000F018F82168084AC1F30311B3
:1089E000515CC8400649086006480068FFF708FF68
:1089F0000020C4E7003C024008380240EA9C00081E
:108A00000C00002004000020154810B5006810F08C
:108A10000C02144813D01449042A0FD0082A0ED18E
:108A20000F4C241F2268236802F03F025B0207D527
:108A30002068C0F38810A0FB010106E0084610BDC5
:108A40002168C1F38811A1FB00010023FFF712FC8C
:108A50002168C1F30141491C4900B0FBF1F010BD90
:108A6000083802400024F40040787D012DE9F84FD9
:108A700004006ED02078DFF84C93C007A9F10405FC
:108A80004AD009F104000168C1F38101012908D02D
:108A90000068C0F3810002280AD1D9F80000400222
:108AA00006D52868800337D560680028E1D033E018
:108AB0006068B0F5803F10D0B0F5A02F286810D0C6
:108AC00020F480302860286820F4802028606068C6
:108AD000A8B1FFF76DFE06460DE0286840F480302F
:108AE000F4E740F480202860F7E700BFFFF760FE5E
:108AF000801B642873D828688003F7D50CE0FFF743
:108B000057FE064605E000BFFFF752FE801B6428B3
:108B1000F0D828688003F7D42078DFF8AC8280078B
:108B20004FF0000A3ED5A748001D016811F00C0F58
:108B300008D00068C0F3810002280BD1D9F80000EA
:108B4000400207D42868800716D5E068012800D1C4
:108B500012E033E1E068B8B10120C8F80000FFF787
:108B600027FE064605E000BFFFF722FE801B022815
:108B7000C0D828688007F7D52868216920F0F80058
:108B800040EAC10028600DE0C8F800A0FFF710FE21
:108B9000064604E0FFF70CFE801B02281FD8286859
:108BA0008007F7D42078000722D5864F874861696F
:108BB000703771B101210160FFF7FAFD064604E04C
:108BC000FFF7F6FD801B022809D838688007F7D523
:108BD0000EE0C0F800A0FFF7EBFD064605E082E0DE
:108BE000FFF7E6FD801B02287DD838688007F7D4A0
:108BF0002078400768D5DFF8CCB100270BF13C0B9B
:108C0000DBF80000C0000BD4DBF8001041F080510D
:108C1000CBF80010DBF80000012700F08050009036
:108C20006B4E3068C00510D4306840F480703060FE
:108C3000FFF7BEFD009005E0FFF7BAFD0099401A6E
:108C4000022850D83068C005F6D55E4EA0686C3654
:108C500001280FD00528306810D020F001003060C6
:108C6000306820F004003060A068B8B1FFF7A0FDC4
:108C700000900FE0306840F00100F4E740F004009D
:108C80003060F7E7FFF794FD0099411A41F2883010
:108C9000814266D830688007F4D50EE0FFF788FD82
:108CA000009007E0FFF784FD0099411A41F28830F7
:108CB000814256D830688007F4D42FB1DBF8001019
:108CC00021F08051CBF80010A069C8B33D49091DBF
:108CD0000968C1F3810102294AD00228504607D011
:108CE000C8F8600000E03CE0FFF762FD04463BE0AE
:108CF0004746C8F86000FFF75BFD064605E000BF89
:108D0000FFF756FD801B02282BD828688001F7D476
:108D1000D4E907010843A16A2E4A490802EB014140
:108D2000626A41EA8211084394F82C1040EA01611A
:108D3000C9F8001001203866FFF73AFD044606E046
:108D40003EE000BFFFF734FD001B022809D8286869
:108D50008001F7D534E000BFFFF72AFD001B022891
:108D600002D90320BDE8F88F28688001F4D427E0F9
:108D70000128F7D0D9F80000E26900F4800191429F
:108D80001CD1226A00F03F01914217D147F6C07111
:108D9000626A0140B1EB821F10D1A26A4FF0FF332B
:108DA00000F4403103EB5202B1EB024F06D194F8CC
:108DB0002C1000F07060B0EB016F01D00120D1E702
:108DC0000020CFE70438024000004742800E4742AF
:108DD000007000400000FFFF10B5401EB0F1807F22
:108DE00001D3012010BD4FF0E02460610F21601716
:108DF00000F0E5FE0020A06107202061002010BDEA
:108E0000FEE7000010B500F007F8024901204870A5
:108E100010BD00003000002001210C2000F004B83B
:108E200000210C20AFF300800123064A834029B1C2
:108E3000012902D1106898431060704710681843E8
:108E4000FAE70000003C0140084A20F0030310B597
:108E50001A44D2F808388007000F0F248440A34337
:108E600081400B43C2F8083810BD000000300140BB
:108E70000122094B824059B1181D012904D0022951
:108E800005D11968114319600168114301607047E9
:108E90001868104318607047083C0140102802D23F
:108EA000014A42F8201070474400002070B58E003F
:108EB0000F2505FA06F402FA06F3203EB540B2404B
:108EC00068B101281BD0022808D1072929D81948E0
:108ED0000168A143016001681943016070BD0D295B
:108EE000FCD00E29FAD00F29F8D0134807290ED844
:108EF000016AA1430162016A1943016270BD03293D
:108F0000FCD00429FAD0072908D80C48E0E7416AC8
:108F1000A9434162416A0A43426270BD0748001D8D
:108F200001E00448001D0168A943016001680A438B
:108F3000026070BD20080240000002402004024090
:108F400010B503234C00A340A24028B101280FD044
:108F500002280CD10B4810E00D2908D00E2906D0AC
:108F60000F2904D00848C16899431143C16010BD5E
:108F70000329FCD00429FAD004480168994311431D
:108F8000016010BD0C080240000002400C040240C9
:108F900010B503234C00A340A24028B101280FD0F4
:108FA00002280CD1094806E00D2908D00E2906D068
:108FB0000F2904D00648016899431143016010BD90
:108FC0000329FCD00429FAD00248F4E70008024043
:108FD000000002400004024070B501258D408A4027
:108FE00003244E00B440B34050B1012818D00228E9
:108FF00015D113480168A94311430160001D19E010
:109000000D290CD00E290AD00F2908D00D4841682F
:10901000A943114341608168A1431943816070BD38
:109020000329FCD00429FAD007480168A943114359
:109030000160001D0168A1431943016070BD00007B
:1090400004080240000002400404024001238B4057
:109050008A4028B101280FD002280CD10B4810E01B
:109060000D2908D00E2906D00F2904D008484169DF
:1090700099431143416170470329FCD00429FAD078
:109080000448016899431143016070471408024085
:1090900000000240140402404109890001F1E0216E
:1090A000D1F8002100F01F03012098400243C1F8CD
:1090B0000021704701228A4050B101280BD00228BC
:1090C0000CD0032803D107480168114301607047A1
:1090D00004480C30F8E703481030F5E70148001F5A
:1090E000F2E70000343802400948016841F001010C
:1090F000016001688907FCD505480830016821F046
:109100000301016001684FF6F0429143016070472E
:1091100000380240FEE7FEE7704710B5FFF7E4FFB6
:1091200000210846FFF7C6FF03210020FFF7C2FF1A
:1091300000210220FFF7BEFF01210220FFF7BAFF46
:109140000021BDE810400120FFF7B4BF10B500F0CA
:1091500007F802490120087010BD0000300000200F
:1091600001210B20FFF760BE00210B20FFF75CBE42
:109170007047FFF723BB000010B592B0302168465E
:10918000FFF7EFF814210CA8FFF7EBF818480024BC
:10919000016841F001010160006800F08050119009
:1091A0001448016821F4404141F400410160006825
:1091B000069400F44040119002200090012003909A
:1091C000102004906846FFF751FC08B172B6FEE724
:1091D0000F20CDE90C040E940F9400210CA81094DC
:1091E000FFF778FB002801D072B6FEE712B010BD81
:1091F00040380240007000400448016841F47001AA
:1092000001600249024880390860704788ED00E03B
:10921000008000080A490B780A4A881C012B0AD0F2
:109220000B78022B06D1926B42804288921C4280BE
:10923000012008707047526B02800878401CF8E7E4
:109240002A000020000001400D4810B5006800B160
:1092500080474FF08040016921F0010101610169FF
:1092600021F002010161016921F00401016101693C
:1092700021F008010161016921F01001016110BDB7
:10928000340000200D4810B5406800B180470C48FC
:10929000016821F001010160016821F00201016013
:1092A000016821F004010160016821F008010160FA
:1092B000016821F01001016010BD000034000020A1
:1092C000100400400D4810B5806800B180470C487C
:1092D000016821F001010160016821F002010160D3
:1092E000016821F004010160016821F008010160BA
:1092F000016821F01001016010BD00003400002061
:10930000100800400D4810B5C06800B180470C48F7
:10931000016821F001010160016821F00201016092
:10932000016821F004010160016821F00801016079
:10933000016821F01001016010BD00003400002020
:10934000100C0040F0B5059C80B1012871D0BE4DD5
:1093500002286FD003286ED1BC4F3E1D301D052959
:1093600069D2DFE801F080E1F3F1F0004FF08040D6
:10937000052978D2DFE801F07703213F6000816999
:1093800021F0FF0141EA02118161816921F00801A8
:109390008161016A53B141F002010162012C08D0E0
:1093A000002C60D1016A21F001015BE021F0020193
:1093B000F3E7016A41F0010154E0816921F47F4142
:1093C00041EA02318161816921F400618161016AB0
:1093D00053B141F020010162012C08D0002C42D190
:1093E000016A21F010013DE021F02001F3E7016A5C
:1093F00041F0100136E0C16921F0FF0141EA02119C
:10940000C161C16921F00801C161016A53B141F430
:1094100000710162012C08D0002C24D1016A21F4D2
:1094200080711FE021F40071F3E7016A41F480715B
:1094300018E0B0E01FE016E0C16921F47F4141EA85
:109440000231C161C16921F40061C161016A5BB18E
:1094500041F400510162012C09D0002C03D1016AB2
:1094600021F480510162F0BD21F40051F2E7016A5C
:1094700041F48051F6E7744E7348361F001D0529EC
:10948000F1D2DFE801F00304182C3C00EBE731686F
:1094900021F0FF0141EA02113160316821F0080139
:1094A00031604BE00160012C73D0002CDBD10168EE
:1094B00021F0010136E0316821F47F4141EA0231B7
:1094C0003160316821F40061316049E00160012CB4
:1094D00077D0002CC7D1016821F0100122E0296863
:1094E00021F0FF0141EA0211296044E00160012CF2
:1094F00069D0002CB7D1016821F4807112E029688D
:1095000021F47F4141EA02312960296821F4006198
:10951000296039E00160012C6AD0002CA3D10168D8
:1095200021F480510160F0BD396821F0FF0141EA6A
:1095300002113960396821F00801396001684BB3C4
:1095400041F00201AEE76DE00FE0FFE7396821F47A
:109550007F4141EA02313960396821F400613960A4
:1095600001687BB341F02001B0E7316821F0FF01D1
:1095700041EA02113160296821F00801296001687F
:10958000A3B341F40071B1E7016883B341F4005122
:10959000C0E71CE018E02E4D2E1D301D0529C2D25B
:1095A000DFE801F00304192E4000BCE7296821F030
:1095B000FF0141EA02112960296821F008012960B0
:1095C000BCE719E015E029E021F002016AE7016833
:1095D00041F00101A6E7296821F47F4141EA023107
:1095E0002960296821F400612960B9E713E024E0CB
:1095F00026E021F0200169E7016841F0100191E7C0
:10960000316821F0FF0141EA02113160316821F037
:1096100008013160B3E721F4007167E7016841F4A4
:1096200080717FE7316821F47F4141EA0231316086
:10963000316821F400613160A6E721F4005169E747
:10964000016841F480516DE71C0400401808004097
:10965000180C0040002138B101280BD0022807D097
:10966000032804D1054806E04FF08040416270476E
:10967000034800E0034801607047000024080040F0
:1096800024040040240C004030B50C4600234FF465
:109690007A7558B1012821D002280FD0032807D1AC
:1096A00014E02946002000F01DF85B1CA342F8D30B
:1096B00030BD2946022000F015F85B1CA342F8D308
:1096C00030BD2946032000F00DF85B1CA342F8D3FF
:1096D00030BD2946012000F005F85B1CA342F8D3F9
:1096E00030BD000000B50A46D8B101284CD0022890
:1096F00033D0032830D10F2100F09EF9114603200A
:1097000000F002F90320FFF7A5FF2D4A106820F0B2
:1097100001001060032000F033FA1068C007FCD08D
:1097200048E00F21002000F087F91146002000F0EA
:10973000EBF80020FFF78EFF4FF08042106920F019
:1097400001001061002000F01BFA1069C007FCD076
:10975000106920F00100106100BD0F21022000F00F
:109760006BF91146022000F0CFF80220FFF772FFDC
:10977000144A106820F001001060022000F000FA86
:109780001068C007FCD015E00F21012000F054F94B
:109790001146012000F0B8F80120FFF75BFF0A4AEC
:1097A000106820F001001060012000F0E9F9106855
:1097B000C007FCD0106820F00100106000BD000060
:1097C0001008004010040040100C004001780022F6
:1097D000C1B101293CD002295BD0032937D14749C7
:1097E0000A608178C278C90141EA4211027941EAEE
:1097F0000212424908390A60407800286ED00128D8
:1098000071D078E04FF080418A608278C378D201CD
:1098100042EA4312037942EA03120A600A6822F01C
:1098200001020A60407810B1012804D00BE00868FA
:1098300040F0040002E0086820F0040008600868B6
:1098400020F002000860486940F00100486170475C
:109850002B490A608178C278C90141EA4211027934
:1098600041EA0212264908390A60407810B10128FD
:1098700004D00BE0086840F0040002E0086820F023
:1098800004000860086820F0020008601C480C30E2
:109890001FE01C490A608178C278C90141EA42117F
:1098A000027941EA0212174908390A60407810B17A
:1098B000012804D00BE0086840F0040002E00868CA
:1098C00020F004000860086820F0020008600D48DD
:1098D0000C30016841F0010101607047086840F0F8
:1098E000040003E0FFE7086820F00400086008684F
:1098F00020F00200086001480C30EAE70808004048
:10990000080C00400804004040B101280CD0022897
:1099100008D0032801D10548016070474FF080400E
:10992000C16270470248F7E70248F5E72C0800409B
:109930002C0400402C0C004070B580B101283BD0B5
:10994000022821D0032814D12548031D1C1D251DE4
:1099500006290ED2DFE801F00D2426282A2C4FF02C
:109960008040062905D2DFE801F004030507090B52
:10997000426370BD826370BDC26370BD026470BD1E
:1099800042638263C263F9E71648031D1C1D251D4F
:109990000629F4D2DFE801F0030406080A0CEEE71A
:1099A000026070BD1A6070BD226070BD2A6070BD1B
:1099B00002601A602260F9E70B4B1D1D2C1D201D53
:1099C0000629F4D2DFE801F0070605040308E7E7FB
:1099D000EAE7EBE7E6E7EAE71A602A602260DFE7FA
:1099E0003408004034040040340C004010B41346E6
:1099F0000022642430B1012814D0022806D00328A4
:109A00000BD10DE04FF08042D26A01E0074A0AE034
:109A1000521C5A43B2FBF4F2521E10BCFFF78CBF2B
:109A2000034A00E0034A1268F2E700002C040040F9
:109A30002C0800402C0C004040B101280CD002281A
:109A400008D0032801D10548016070474FF08040DD
:109A5000816270470248F7E70248F5E728080040AE
:109A600028040040280C004098B101285DD002284D
:109A70003ED0032826D13F4A106820F0080010602D
:109A80003C48203006296FD2DFE801F06E5E626646
:109A90006A424FF08040026822F008020260062904
:109AA0000CD2DFE801F00B0307101418016A41F033
:109AB000010102E0016A41F010010162016841F018
:109AC000010101607047016A41F48071F5E7016AA4
:109AD00041F48051F1E7016A41F001010162016A3C
:109AE00041F010010162016A41F480710162EEE708
:109AF000214A106820F0080010601F482030062915
:109B000032D2DFE801F0312125292D0501602BE05B
:109B1000016841F001010160016841F0100101603C
:109B2000016841F4807101601AE0144A106820F065
:109B30000800106011482030062915D2DFE801F036
:109B40001404080C1003E3E7016841F00101DDE7AC
:109B5000016841F01001D9E7016841F48071D5E74F
:109B6000016841F48051D1E7106840F001001060B5
:109B7000704700000008004000040040000C004056
:109B800038B101280AD0022806D003280FD108488E
:109B900005E04FF0804002E0064800E0064801681A
:109BA00041F008010160016841F001010160704766
:109BB0000008004000040040000C0040FEE70907D8
:109BC000090E002804DB00F1E02080F80014704743
:109BD00000F00F0000F1E02080F8141D7047000035
:109BE00010B500220B211046FFF7D2F900220C21FC
:109BF0001046FFF7CDF902220B210020FFF7A0F954
:109C000002220C210020FFF79BF900210B20FFF717
:109C10001BF900210C20FFF717F900210B20FFF79B
:109C200027F900210C20FFF723F908490B20FFF743
:109C300035F907490C20FFF731F9FFF795FAFFF7DF
:109C4000EFF8BDE810402820FFF726BA4D91000834
:109C5000058E0008FEF7BAFDFFF78EFAFFF75DFAF2
:109C60001B48FEF717FC1B48FFF7B0FDFFF7B8FFD6
:109C7000194D1A4C00264FF4C877287810B10128E6
:109C80000ED00FE0217801290CD12820FEF7E9FB46
:109C9000267039460120FFF7F7FCFFF7C1F8ECE723
:109CA000217829B1217808430DD0FEF7E8FBE4E7DD
:109CB0002820FEF7C8FB2E7039460120FFF7E4FC90
:109CC000FFF752FAD9E71420FEF7AFFBD5E7000003
:109CD000100000202500002030000020310000206E
:109CE0004FF04070E1EE100A7047000000000000E5
:109CF0000000010203040607080900001C9D00087B
:109D00000000002034000000D0810008509D0008B1
:109D100034000020B4060000EC81000801000000BF
:109D200010000000000000000024F400000100000A
:109D30000004000500020001000600070001000009
:109D40000001000000000100000000000000000011
:0400000508008195D9
:00000001FF
